{
  "address": "0xE1d4C8C76C8C5b7196829773314FbE4D8202Cbe3",
  "abi": [
    {
      "inputs": [
        {
          "internalType": "contract IPublicSharedMetadata",
          "name": "_sharedMetadata",
          "type": "address"
        }
      ],
      "stateMutability": "nonpayable",
      "type": "constructor"
    },
    {
      "anonymous": false,
      "inputs": [
        {
          "indexed": true,
          "internalType": "address",
          "name": "owner",
          "type": "address"
        },
        {
          "indexed": true,
          "internalType": "address",
          "name": "approved",
          "type": "address"
        },
        {
          "indexed": true,
          "internalType": "uint256",
          "name": "tokenId",
          "type": "uint256"
        }
      ],
      "name": "Approval",
      "type": "event"
    },
    {
      "anonymous": false,
      "inputs": [
        {
          "indexed": true,
          "internalType": "address",
          "name": "owner",
          "type": "address"
        },
        {
          "indexed": true,
          "internalType": "address",
          "name": "operator",
          "type": "address"
        },
        {
          "indexed": false,
          "internalType": "bool",
          "name": "approved",
          "type": "bool"
        }
      ],
      "name": "ApprovalForAll",
      "type": "event"
    },
    {
      "anonymous": false,
      "inputs": [
        {
          "indexed": true,
          "internalType": "address",
          "name": "previousOwner",
          "type": "address"
        },
        {
          "indexed": true,
          "internalType": "address",
          "name": "newOwner",
          "type": "address"
        }
      ],
      "name": "OwnershipTransferred",
      "type": "event"
    },
    {
      "anonymous": false,
      "inputs": [
        {
          "indexed": true,
          "internalType": "address",
          "name": "from",
          "type": "address"
        },
        {
          "indexed": true,
          "internalType": "address",
          "name": "to",
          "type": "address"
        },
        {
          "indexed": true,
          "internalType": "uint256",
          "name": "tokenId",
          "type": "uint256"
        }
      ],
      "name": "Transfer",
      "type": "event"
    },
    {
      "inputs": [
        {
          "internalType": "address[]",
          "name": "to",
          "type": "address[]"
        }
      ],
      "name": "airdrop",
      "outputs": [],
      "stateMutability": "nonpayable",
      "type": "function"
    },
    {
      "inputs": [
        {
          "internalType": "address",
          "name": "to",
          "type": "address"
        },
        {
          "internalType": "uint256",
          "name": "tokenId",
          "type": "uint256"
        }
      ],
      "name": "approve",
      "outputs": [],
      "stateMutability": "nonpayable",
      "type": "function"
    },
    {
      "inputs": [
        {
          "internalType": "address",
          "name": "owner",
          "type": "address"
        }
      ],
      "name": "balanceOf",
      "outputs": [
        {
          "internalType": "uint256",
          "name": "",
          "type": "uint256"
        }
      ],
      "stateMutability": "view",
      "type": "function"
    },
    {
      "inputs": [
        {
          "internalType": "uint256",
          "name": "tokenId",
          "type": "uint256"
        }
      ],
      "name": "getApproved",
      "outputs": [
        {
          "internalType": "address",
          "name": "",
          "type": "address"
        }
      ],
      "stateMutability": "view",
      "type": "function"
    },
    {
      "inputs": [
        {
          "internalType": "uint256",
          "name": "tokenId",
          "type": "uint256"
        }
      ],
      "name": "getZorbRenderAddress",
      "outputs": [
        {
          "internalType": "address",
          "name": "",
          "type": "address"
        }
      ],
      "stateMutability": "view",
      "type": "function"
    },
    {
      "inputs": [
        {
          "internalType": "address",
          "name": "user",
          "type": "address"
        }
      ],
      "name": "gradientForAddress",
      "outputs": [
        {
          "internalType": "bytes[5]",
          "name": "",
          "type": "bytes[5]"
        }
      ],
      "stateMutability": "pure",
      "type": "function"
    },
    {
      "inputs": [
        {
          "internalType": "address",
          "name": "owner",
          "type": "address"
        },
        {
          "internalType": "address",
          "name": "operator",
          "type": "address"
        }
      ],
      "name": "isApprovedForAll",
      "outputs": [
        {
          "internalType": "bool",
          "name": "",
          "type": "bool"
        }
      ],
      "stateMutability": "view",
      "type": "function"
    },
    {
      "inputs": [],
      "name": "mint",
      "outputs": [],
      "stateMutability": "nonpayable",
      "type": "function"
    },
    {
      "inputs": [],
      "name": "mintIsOpen",
      "outputs": [
        {
          "internalType": "bool",
          "name": "",
          "type": "bool"
        }
      ],
      "stateMutability": "view",
      "type": "function"
    },
    {
      "inputs": [],
      "name": "name",
      "outputs": [
        {
          "internalType": "string",
          "name": "",
          "type": "string"
        }
      ],
      "stateMutability": "view",
      "type": "function"
    },
    {
      "inputs": [],
      "name": "owner",
      "outputs": [
        {
          "internalType": "address",
          "name": "",
          "type": "address"
        }
      ],
      "stateMutability": "view",
      "type": "function"
    },
    {
      "inputs": [
        {
          "internalType": "uint256",
          "name": "tokenId",
          "type": "uint256"
        }
      ],
      "name": "ownerOf",
      "outputs": [
        {
          "internalType": "address",
          "name": "",
          "type": "address"
        }
      ],
      "stateMutability": "view",
      "type": "function"
    },
    {
      "inputs": [],
      "name": "renounceOwnership",
      "outputs": [],
      "stateMutability": "nonpayable",
      "type": "function"
    },
    {
      "inputs": [
        {
          "internalType": "address",
          "name": "from",
          "type": "address"
        },
        {
          "internalType": "address",
          "name": "to",
          "type": "address"
        },
        {
          "internalType": "uint256",
          "name": "tokenId",
          "type": "uint256"
        }
      ],
      "name": "safeTransferFrom",
      "outputs": [],
      "stateMutability": "nonpayable",
      "type": "function"
    },
    {
      "inputs": [
        {
          "internalType": "address",
          "name": "from",
          "type": "address"
        },
        {
          "internalType": "address",
          "name": "to",
          "type": "address"
        },
        {
          "internalType": "uint256",
          "name": "tokenId",
          "type": "uint256"
        },
        {
          "internalType": "bytes",
          "name": "_data",
          "type": "bytes"
        }
      ],
      "name": "safeTransferFrom",
      "outputs": [],
      "stateMutability": "nonpayable",
      "type": "function"
    },
    {
      "inputs": [
        {
          "internalType": "address",
          "name": "operator",
          "type": "address"
        },
        {
          "internalType": "bool",
          "name": "approved",
          "type": "bool"
        }
      ],
      "name": "setApprovalForAll",
      "outputs": [],
      "stateMutability": "nonpayable",
      "type": "function"
    },
    {
      "inputs": [
        {
          "internalType": "address[]",
          "name": "marketPlaces",
          "type": "address[]"
        },
        {
          "internalType": "bool",
          "name": "isKnown",
          "type": "bool"
        }
      ],
      "name": "setKnownMarketplaces",
      "outputs": [],
      "stateMutability": "nonpayable",
      "type": "function"
    },
    {
      "inputs": [
        {
          "internalType": "bytes4",
          "name": "interfaceId",
          "type": "bytes4"
        }
      ],
      "name": "supportsInterface",
      "outputs": [
        {
          "internalType": "bool",
          "name": "",
          "type": "bool"
        }
      ],
      "stateMutability": "view",
      "type": "function"
    },
    {
      "inputs": [],
      "name": "symbol",
      "outputs": [
        {
          "internalType": "string",
          "name": "",
          "type": "string"
        }
      ],
      "stateMutability": "view",
      "type": "function"
    },
    {
      "inputs": [
        {
          "internalType": "uint256",
          "name": "tokenId",
          "type": "uint256"
        }
      ],
      "name": "tokenURI",
      "outputs": [
        {
          "internalType": "string",
          "name": "",
          "type": "string"
        }
      ],
      "stateMutability": "view",
      "type": "function"
    },
    {
      "inputs": [],
      "name": "totalSupply",
      "outputs": [
        {
          "internalType": "uint256",
          "name": "",
          "type": "uint256"
        }
      ],
      "stateMutability": "view",
      "type": "function"
    },
    {
      "inputs": [
        {
          "internalType": "address",
          "name": "from",
          "type": "address"
        },
        {
          "internalType": "address",
          "name": "to",
          "type": "address"
        },
        {
          "internalType": "uint256",
          "name": "tokenId",
          "type": "uint256"
        }
      ],
      "name": "transferFrom",
      "outputs": [],
      "stateMutability": "nonpayable",
      "type": "function"
    },
    {
      "inputs": [
        {
          "internalType": "address",
          "name": "newOwner",
          "type": "address"
        }
      ],
      "name": "transferOwnership",
      "outputs": [],
      "stateMutability": "nonpayable",
      "type": "function"
    },
    {
      "inputs": [
        {
          "internalType": "address",
          "name": "user",
          "type": "address"
        }
      ],
      "name": "zorbForAddress",
      "outputs": [
        {
          "internalType": "string",
          "name": "",
          "type": "string"
        }
      ],
      "stateMutability": "view",
      "type": "function"
    }
  ],
  "transactionHash": "0xb91dcc5d6110b422f6e44e199cdec8c8e576465e63dff8e866c61bf28d0a6e01",
  "args": [
    "0x15B016C109d619Bf47091DC3A6074f5bDBd21efB"
  ],
  "solcInputHash": "c827a6b3404d9888e4c3113f8272f86b",
  "bytecode": "0x60a06040523480156200001157600080fd5b5060405162003929380380620039298339810160408190526200003491620001e1565b60408051808201825260058152645a6f72627360d81b6020808301918252835180850190945260048452632d27a92160e11b9084015281519192916200007d916000916200013b565b508051620000939060019060208401906200013b565b505050620000b0620000aa620000dc60201b60201c565b620000e0565b6001600160a01b038116608052620000d5600962000132602090811b62000d7017901c565b5062000250565b3390565b600680546001600160a01b038381166001600160a01b0319831681179093556040519116919082907f8be0079c531659141344cd1fd0a4f28419497f9722a3daafe3b4186f6b6457e090600090a35050565b80546001019055565b828054620001499062000213565b90600052602060002090601f0160209004810192826200016d5760008555620001b8565b82601f106200018857805160ff1916838001178555620001b8565b82800160010185558215620001b8579182015b82811115620001b85782518255916020019190600101906200019b565b50620001c6929150620001ca565b5090565b5b80821115620001c65760008155600101620001cb565b600060208284031215620001f457600080fd5b81516001600160a01b03811681146200020c57600080fd5b9392505050565b600181811c908216806200022857607f821691505b602082108114156200024a57634e487b7160e01b600052602260045260246000fd5b50919050565b6080516136af6200027a60003960008181610a5d01528181610ad80152610bcd01526136af6000f3fe608060405234801561001057600080fd5b50600436106101585760003560e01c8063715018a6116100c3578063aa1152ab1161007c578063aa1152ab146102d1578063b88d4fde146102d9578063c87b56dd146102ec578063de909942146102ff578063e985e9c514610312578063f2fde38b1461032557600080fd5b8063715018a614610277578063729ad39e1461027f5780638da5cb5b1461029257806391557ac4146102a357806395d89b41146102b6578063a22cb465146102be57600080fd5b806318160ddd1161011557806318160ddd1461020257806323b872dd1461021857806342842e0e1461022b5780636352211e1461023e5780636411fb451461025157806370a082311461026457600080fd5b806301ffc9a71461015d57806303ff85ff1461018557806306fdde03146101a5578063081812fc146101ba578063095ea7b3146101e55780631249c58b146101fa575b600080fd5b61017061016b366004612756565b610338565b60405190151581526020015b60405180910390f35b610198610193366004612788565b61038a565b60405161017c91906127fd565b6101ad61039b565b60405161017c919061284a565b6101cd6101c836600461285d565b61042d565b6040516001600160a01b03909116815260200161017c565b6101f86101f3366004612876565b6104ba565b005b6101f86105cb565b61020a610611565b60405190815260200161017c565b6101f86102263660046128a2565b61062d565b6101f86102393660046128a2565b61065e565b6101cd61024c36600461285d565b610679565b6101f861025f3660046128f3565b6106f0565b61020a610272366004612788565b610791565b6101f8610818565b6101f861028d3660046129bc565b61084c565b6006546001600160a01b03166101cd565b6101cd6102b136600461285d565b6108c6565b6101ad61098e565b6101f86102cc366004612a6d565b61099d565b6101706109a8565b6101f86102e7366004612ac9565b6109d1565b6101ad6102fa36600461285d565b610a03565b6101ad61030d366004612788565b610b9e565b610170610320366004612b77565b610ca7565b6101f8610333366004612788565b610cd5565b60006001600160e01b031982166380ac58cd60e01b148061036957506001600160e01b03198216635b5e139f60e01b145b8061038457506301ffc9a760e01b6001600160e01b03198316145b92915050565b610392612719565b61038482610d79565b6060600080546103aa90612bb0565b80601f01602080910402602001604051908101604052809291908181526020018280546103d690612bb0565b80156104235780601f106103f857610100808354040283529160200191610423565b820191906000526020600020905b81548152906001019060200180831161040657829003601f168201915b5050505050905090565b60006104388261105d565b61049e5760405162461bcd60e51b815260206004820152602c60248201527f4552433732313a20617070726f76656420717565727920666f72206e6f6e657860448201526b34b9ba32b73a103a37b5b2b760a11b60648201526084015b60405180910390fd5b506000908152600460205260409020546001600160a01b031690565b60006104c582610679565b9050806001600160a01b0316836001600160a01b031614156105335760405162461bcd60e51b815260206004820152602160248201527f4552433732313a20617070726f76616c20746f2063757272656e74206f776e656044820152603960f91b6064820152608401610495565b336001600160a01b038216148061054f575061054f8133610ca7565b6105bc5760405162461bcd60e51b815260206004820152603860248201527f4552433732313a20617070726f76652063616c6c6572206973206e6f74206f776044820152771b995c881b9bdc88185c1c1c9bdd995908199bdc88185b1b60421b6064820152608401610495565b6105c6838361107a565b505050565b6105d36109a8565b6105ef5760405162461bcd60e51b815260040161049590612beb565b610601336105fc60095490565b6110e8565b61060f600980546001019055565b565b6000600161061e60095490565b6106289190612c28565b905090565b6106373382611227565b6106535760405162461bcd60e51b815260040161049590612c3f565b6105c68383836112f1565b6105c6838383604051806020016040528060008152506109d1565b6000818152600260205260408120546001600160a01b0316806103845760405162461bcd60e51b815260206004820152602960248201527f4552433732313a206f776e657220717565727920666f72206e6f6e657869737460448201526832b73a103a37b5b2b760b91b6064820152608401610495565b6006546001600160a01b0316331461071a5760405162461bcd60e51b815260040161049590612c90565b60005b8281101561078b57816007600086868581811061073c5761073c612cc5565b90506020020160208101906107519190612788565b6001600160a01b031681526020810191909152604001600020805460ff19169115159190911790558061078381612cdb565b91505061071d565b50505050565b60006001600160a01b0382166107fc5760405162461bcd60e51b815260206004820152602a60248201527f4552433732313a2062616c616e636520717565727920666f7220746865207a65604482015269726f206164647265737360b01b6064820152608401610495565b506001600160a01b031660009081526003602052604090205490565b6006546001600160a01b031633146108425760405162461bcd60e51b815260040161049590612c90565b61060f600061149c565b6108546109a8565b6108705760405162461bcd60e51b815260040161049590612beb565b60005b81518110156108c2576108a282828151811061089157610891612cc5565b60200260200101516105fc60095490565b6108b0600980546001019055565b806108ba81612cdb565b915050610873565b5050565b6040516331a9108f60e11b81526004810182905260009081903090636352211e90602401602060405180830381865afa158015610907573d6000803e3d6000fd5b505050506040513d601f19601f8201168201806040525081019061092b9190612cf6565b6001600160a01b03811660009081526007602052604090205490915060ff16801561096c57506000838152600860205260409020546001600160a01b031615155b156103845750506000908152600860205260409020546001600160a01b031690565b6060600180546103aa90612bb0565b6108c23383836114ee565b60006361cfdfd04211801561062857506109c962024ea06361cfdfd0612d13565b421115905090565b6109db3383611227565b6109f75760405162461bcd60e51b815260040161049590612c3f565b61078b848484846115b9565b6060610a0e8261105d565b610a455760405162461bcd60e51b81526020600482015260086024820152672737903a37b5b2b760c11b6044820152606401610495565b60405162b86e3360e51b8152600481018390526000907f00000000000000000000000000000000000000000000000000000000000000006001600160a01b03169063170dc66090602401600060405180830381865afa158015610aac573d6000803e3d6000fd5b505050506040513d6000823e601f3d908101601f19168201604052610ad49190810190612d2b565b90507f00000000000000000000000000000000000000000000000000000000000000006001600160a01b031663d01fde8c828384610b1461030d896108c6565b604051602001610b279493929190612dbd565b6040516020818303038152906040526040518263ffffffff1660e01b8152600401610b52919061284a565b600060405180830381865afa158015610b6f573d6000803e3d6000fd5b505050506040513d6000823e601f3d908101601f19168201604052610b979190810190612d2b565b9392505050565b60606000610bab8361038a565b80516020808301516040808501516060860151608087015192519697506000967f00000000000000000000000000000000000000000000000000000000000000006001600160a01b03169663d5fb1b1996610c0c9691959194939201612f70565b6040516020818303038152906040526040518263ffffffff1660e01b8152600401610c37919061284a565b600060405180830381865afa158015610c54573d6000803e3d6000fd5b505050506040513d6000823e601f3d908101601f19168201604052610c7c9190810190612d2b565b905080604051602001610c8f919061338d565b60405160208183030381529060405292505050919050565b6001600160a01b03918216600090815260056020908152604080832093909416825291909152205460ff1690565b6006546001600160a01b03163314610cff5760405162461bcd60e51b815260040161049590612c90565b6001600160a01b038116610d645760405162461bcd60e51b815260206004820152602660248201527f4f776e61626c653a206e6577206f776e657220697320746865207a65726f206160448201526564647265737360d01b6064820152608401610495565b610d6d8161149c565b50565b80546001019055565b610d81612719565b6001600160a01b038216600060118260131a60180281610da357610da36133d2565b0490506000602283601d1a60050281610dbe57610dbe6133d2565b046020019050606160338460171a60050281610ddc57610ddc6133d2565b0401604801600281049050600060108560181a81610dfc57610dfc6133d2565b04605101905060006080866015600b91901a0260ff1681610e1f57610e1f6133d2565b046046019050600a8203811115610e37575060091981015b6040805160a0810190915280610eb1610e6c89601c1a60028b60191a81610e6057610e606133d2565b0660ff168a60006115ec565b610e8c60028b601c1a81610e8257610e826133d2565b0687876064611740565b610eac60028c601a1a81610ea257610ea26133d2565b068a8a6064611788565b611800565b8152602001610f1f610edf89601c1a60028b60191a81610ed357610ed36133d2565b0660ff168a600a6115ec565b610eff60028b601c1a81610ef557610ef56133d2565b068787605a611740565b610eac60028c601a1a81610f1557610f156133d2565b068a8a605a611788565b8152602001610f8d610f4d89601c1a60028b60191a81610f4157610f416133d2565b0660ff168a60466115ec565b610f6d60028b601c1a81610f6357610f636133d2565b0687876046611740565b610eac60028c601a1a81610f8357610f836133d2565b068a8a6046611788565b8152602001610ffb610fbb89601c1a60028b60191a81610faf57610faf6133d2565b0660ff168a605a6115ec565b610fdb60028b601c1a81610fd157610fd16133d2565b0687876014611740565b610eac60028c601a1a81610ff157610ff16133d2565b068a8a6014611788565b815260200161104f61102989601c1a60028b60191a8161101d5761101d6133d2565b0660ff168a60646115ec565b61104960028b601c1a8161103f5761103f6133d2565b0687876000611740565b88611800565b905298975050505050505050565b6000908152600260205260409020546001600160a01b0316151590565b600081815260046020526040902080546001600160a01b0319166001600160a01b03841690811790915581906110af82610679565b6001600160a01b03167f8c5be1e5ebec7d5bd14f71427d1e84f3dd0314c0f7b2291e5b200ac8c7c3b92560405160405180910390a45050565b6001600160a01b03821661113e5760405162461bcd60e51b815260206004820181905260248201527f4552433732313a206d696e7420746f20746865207a65726f20616464726573736044820152606401610495565b6111478161105d565b156111945760405162461bcd60e51b815260206004820152601c60248201527f4552433732313a20746f6b656e20616c7265616479206d696e746564000000006044820152606401610495565b6111a060008383611847565b6001600160a01b03821660009081526003602052604081208054600192906111c9908490612d13565b909155505060008181526002602052604080822080546001600160a01b0319166001600160a01b03861690811790915590518392907fddf252ad1be2c89b69c2b068fc378daa952ba7f163c4a11628f55a4df523b3ef908290a45050565b60006112328261105d565b6112935760405162461bcd60e51b815260206004820152602c60248201527f4552433732313a206f70657261746f7220717565727920666f72206e6f6e657860448201526b34b9ba32b73a103a37b5b2b760a11b6064820152608401610495565b600061129e83610679565b9050806001600160a01b0316846001600160a01b031614806112d95750836001600160a01b03166112ce8461042d565b6001600160a01b0316145b806112e957506112e98185610ca7565b949350505050565b826001600160a01b031661130482610679565b6001600160a01b03161461136c5760405162461bcd60e51b815260206004820152602960248201527f4552433732313a207472616e73666572206f6620746f6b656e2074686174206960448201526839903737ba1037bbb760b91b6064820152608401610495565b6001600160a01b0382166113ce5760405162461bcd60e51b8152602060048201526024808201527f4552433732313a207472616e7366657220746f20746865207a65726f206164646044820152637265737360e01b6064820152608401610495565b6113d9838383611847565b6113e460008261107a565b6001600160a01b038316600090815260036020526040812080546001929061140d908490612c28565b90915550506001600160a01b038216600090815260036020526040812080546001929061143b908490612d13565b909155505060008181526002602052604080822080546001600160a01b0319166001600160a01b0386811691821790925591518493918716917fddf252ad1be2c89b69c2b068fc378daa952ba7f163c4a11628f55a4df523b3ef91a4505050565b600680546001600160a01b038381166001600160a01b0319831681179093556040519116919082907f8be0079c531659141344cd1fd0a4f28419497f9722a3daafe3b4186f6b6457e090600090a35050565b816001600160a01b0316836001600160a01b0316141561154c5760405162461bcd60e51b815260206004820152601960248201527822a9219b99189d1030b8383937bb32903a379031b0b63632b960391b6044820152606401610495565b6001600160a01b03838116600081815260056020908152604080832094871680845294825291829020805460ff191686151590811790915591519182527f17307eab39ab6107e8899845ad3d59bd9653f200f220920489ca2b5937696c31910160405180910390a3505050565b6115c48484846112f1565b6115d084848484611896565b61078b5760405162461bcd60e51b8152600401610495906133e8565b6000806115fa60048761343a565b60ff16905083816116675761165e861561161e5761161982600a61345c565b611629565b611629600a8361349d565b6116369060ff87166134dc565b8261164560ff8816606461349d565b61164f91906134dc565b611659919061345c565b611991565b925050506112e9565b816001141561168f5761165e86156116845761161982601e61345c565b611629601e8361349d565b81600214156116ea5761165e86156116b1576116ac82603261345c565b6116bc565b6116bc60328361349d565b6116c88660ff166119c4565b6116d291906134dc565b826116df8760ff166119c4565b61164590606461349d565b61173560808860ff16116116ff576000611702565b60015b60ff16871561171257603c611716565b603b195b61172091906134dc565b61172a908361345c565b6116bc90601e61345c565b979650505050505050565b60008060ff86166117705761175483611eba565b60ff1690506064818103860285830201046001019150506112e9565b50816064818103860285830201049695505050505050565b60008060ff86166117a65761179c83611eba565b60ff1690506117b5565b6117af83612216565b60ff1690505b60646117c18583613561565b866117cd846064612c28565b6117d79190613561565b6117e19190612d13565b6117eb9190613580565b6117f6906001612d13565b9695505050505050565b606061180b8461261c565b6118148461261c565b61181d8461261c565b60405160200161182f93929190613594565b60405160208183030381529060405290509392505050565b6001600160a01b03821660009081526007602052604090205460ff16156105c657600081815260086020526040902080546001600160a01b0385166001600160a01b0319909116179055505050565b60006001600160a01b0384163b1561198957604051630a85bd0160e11b81526001600160a01b0385169063150b7a02906118da903390899088908890600401613615565b6020604051808303816000875af1925050508015611915575060408051601f3d908101601f1916820190925261191291810190613648565b60015b61196f573d808015611943576040519150601f19603f3d011682016040523d82523d6000602084013e611948565b606091505b5080516119675760405162461bcd60e51b8152600401610495906133e8565b805181602001fd5b6001600160e01b031916630a85bd0160e11b1490506112e9565b5060016112e9565b6064900560008082126119aa57610168825b0692915050565b6101688260001902816119a3576119a36133d2565b919050565b6000600d8261ffff1610156119db57506000919050565b60118261ffff1610156119f057506001919050565b60138261ffff161015611a0557506002919050565b60158261ffff161015611a1a57506003919050565b60178261ffff161015611a2f57506004919050565b60188261ffff161015611a4457506005919050565b60198261ffff161015611a5957506006919050565b601b8261ffff161015611a6e57506007919050565b601c8261ffff161015611a8357506008919050565b601d8261ffff161015611a9857506009919050565b601e8261ffff161015611aad5750600a919050565b601f8261ffff161015611ac25750600b919050565b60208261ffff161015611ad75750600d919050565b60218261ffff161015611aec5750600e919050565b60228261ffff161015611b015750600f919050565b60238261ffff161015611b1657506011919050565b60248261ffff161015611b2b57506012919050565b60258261ffff161015611b4057506014919050565b60268261ffff161015611b5557506015919050565b60278261ffff161015611b6a57506017919050565b60288261ffff161015611b7f57506019919050565b60298261ffff161015611b945750601b919050565b602a8261ffff161015611ba95750601d919050565b602b8261ffff161015611bbe5750601f919050565b602c8261ffff161015611bd357506022919050565b602d8261ffff161015611be857506024919050565b602e8261ffff161015611bfd57506026919050565b602f8261ffff161015611c1257506029919050565b60308261ffff161015611c275750602c919050565b60318261ffff161015611c3c5750602f919050565b60328261ffff161015611c5157506032919050565b60338261ffff161015611c6657506034919050565b60348261ffff161015611c7b57506037919050565b60358261ffff161015611c905750603a919050565b60368261ffff161015611ca55750603d919050565b60378261ffff161015611cba5750603f919050565b60388261ffff161015611ccf57506041919050565b60398261ffff161015611ce457506044919050565b603a8261ffff161015611cf957506046919050565b603b8261ffff161015611d0e57506048919050565b603c8261ffff161015611d235750604a919050565b603d8261ffff161015611d385750604c919050565b603e8261ffff161015611d4d5750604e919050565b603f8261ffff161015611d625750604f919050565b60408261ffff161015611d7757506051919050565b60418261ffff161015611d8c57506052919050565b60428261ffff161015611da157506054919050565b60438261ffff161015611db657506055919050565b60448261ffff161015611dcb57506056919050565b60458261ffff161015611de057506058919050565b60468261ffff161015611df557506059919050565b60478261ffff161015611e0a5750605a919050565b60488261ffff161015611e1f5750605b919050565b604a8261ffff161015611e345750605c919050565b604b8261ffff161015611e495750605d919050565b604c8261ffff161015611e5e5750605e919050565b604e8261ffff161015611e735750605f919050565b60508261ffff161015611e8857506060919050565b60528261ffff161015611e9d57506061919050565b60568261ffff161015611eb257506062919050565b506063919050565b60006027821015611ecd57506000919050565b602d821015611ede57506001919050565b6031821015611eef57506002919050565b6034821015611f0057506003919050565b6035821015611f1157506004919050565b6036821015611f2257506004919050565b6037821015611f3357506005919050565b6038821015611f4457506005919050565b6039821015611f5557506006919050565b603a821015611f6657506006919050565b603b821015611f7757506007919050565b603c821015611f8857506007919050565b603d821015611f9957506008919050565b603e821015611faa57506009919050565b603f821015611fbb57506009919050565b6040821015611fcc5750600a919050565b6041821015611fdd5750600b919050565b6042821015611fee5750600c919050565b6043821015611fff5750600d919050565b60448210156120105750600e919050565b60458210156120215750600f919050565b604682101561203257506010919050565b604782101561204357506012919050565b604882101561205457506013919050565b604982101561206557506014919050565b604a82101561207657506016919050565b604b82101561208757506017919050565b604c82101561209857506019919050565b604d8210156120a95750601b919050565b604e8210156120ba5750601c919050565b604f8210156120cb5750601e919050565b60508210156120dc57506020919050565b60518210156120ed57506022919050565b60528210156120fe57506025919050565b605382101561210f57506027919050565b605482101561212057506029919050565b60558210156121315750602c919050565b60568210156121425750602f919050565b605782101561215357506031919050565b605882101561216457506034919050565b605982101561217557506037919050565b605a8210156121865750603b919050565b605b8210156121975750603e919050565b605c8210156121a857506041919050565b605d8210156121b957506045919050565b605e8210156121ca57506049919050565b605f8210156121db5750604d919050565b60608210156121ec57506051919050565b60618210156121fd57506055919050565b606282101561220e5750605a919050565b50605f919050565b6000601682101561222957506000919050565b601c82101561223a57506001919050565b602082101561224b57506002919050565b602082101561225c57506003919050565b602282101561226d57506003919050565b602482101561227e57506004919050565b602782101561228f57506005919050565b60298210156122a057506006919050565b602b8210156122b157506007919050565b602e8210156122c257506009919050565b602f8210156122d35750600a919050565b60318210156122e45750600b919050565b60328210156122f55750600c919050565b60338210156123065750600d919050565b60358210156123175750600e919050565b60368210156123285750600f919050565b603782101561233957506010919050565b603882101561234a57506011919050565b603982101561235b57506012919050565b603a82101561236c57506013919050565b603b82101561237d57506014919050565b603c82101561238e57506015919050565b603d82101561239f57506016919050565b603e8210156123b057506017919050565b603f8210156123c157506019919050565b60408210156123d25750601a919050565b60418210156123e35750601b919050565b60428210156123f45750601c919050565b60438210156124055750601e919050565b60448210156124165750601f919050565b604582101561242757506020919050565b604682101561243857506022919050565b604782101561244957506023919050565b604882101561245a57506025919050565b604982101561246b57506026919050565b604a82101561247c57506028919050565b604b82101561248d5750602a919050565b604c82101561249e5750602b919050565b604d8210156124af5750602d919050565b604e8210156124c05750602f919050565b604f8210156124d157506031919050565b60508210156124e257506033919050565b60518210156124f357506035919050565b605282101561250457506037919050565b605382101561251557506039919050565b60548210156125265750603b919050565b60558210156125375750603d919050565b60568210156125485750603f919050565b605782101561255957506041919050565b605882101561256a57506044919050565b605982101561257b57506046919050565b605a82101561258c57506048919050565b605b82101561259d5750604b919050565b605c8210156125ae5750604d919050565b605d8210156125bf57506050919050565b605e8210156125d057506053919050565b605f8210156125e157506055919050565b60608210156125f257506058919050565b60618210156126035750605b919050565b60628210156126145750605e919050565b506061919050565b6060816126405750506040805180820190915260018152600360fc1b602082015290565b8160005b811561266a578061265481612cdb565b91506126639050600a83613580565b9150612644565b6000816001600160401b0381111561268457612684612976565b6040519080825280601f01601f1916602001820160405280156126ae576020820181803683370190505b5090505b84156112e9576126c3600183612c28565b91506126d0600a86613665565b6126db906030612d13565b60f81b8183815181106126f0576126f0612cc5565b60200101906001600160f81b031916908160001a905350612712600a86613580565b94506126b2565b6040518060a001604052806005905b60608152602001906001900390816127285790505090565b6001600160e01b031981168114610d6d57600080fd5b60006020828403121561276857600080fd5b8135610b9781612740565b6001600160a01b0381168114610d6d57600080fd5b60006020828403121561279a57600080fd5b8135610b9781612773565b60005b838110156127c05781810151838201526020016127a8565b8381111561078b5750506000910152565b600081518084526127e98160208601602086016127a5565b601f01601f19169290920160200192915050565b602080825260009060c0830183820185845b600581101561283e57601f1987850301835261282c8483516127d1565b9350918401919084019060010161280f565b50919695505050505050565b602081526000610b9760208301846127d1565b60006020828403121561286f57600080fd5b5035919050565b6000806040838503121561288957600080fd5b823561289481612773565b946020939093013593505050565b6000806000606084860312156128b757600080fd5b83356128c281612773565b925060208401356128d281612773565b929592945050506040919091013590565b803580151581146119bf57600080fd5b60008060006040848603121561290857600080fd5b83356001600160401b038082111561291f57600080fd5b818601915086601f83011261293357600080fd5b81358181111561294257600080fd5b8760208260051b850101111561295757600080fd5b60209283019550935061296d91860190506128e3565b90509250925092565b634e487b7160e01b600052604160045260246000fd5b604051601f8201601f191681016001600160401b03811182821017156129b4576129b4612976565b604052919050565b600060208083850312156129cf57600080fd5b82356001600160401b03808211156129e657600080fd5b818501915085601f8301126129fa57600080fd5b813581811115612a0c57612a0c612976565b8060051b9150612a1d84830161298c565b8181529183018401918481019088841115612a3757600080fd5b938501935b83851015612a615784359250612a5183612773565b8282529385019390850190612a3c565b98975050505050505050565b60008060408385031215612a8057600080fd5b8235612a8b81612773565b9150612a99602084016128e3565b90509250929050565b60006001600160401b03821115612abb57612abb612976565b50601f01601f191660200190565b60008060008060808587031215612adf57600080fd5b8435612aea81612773565b93506020850135612afa81612773565b92506040850135915060608501356001600160401b03811115612b1c57600080fd5b8501601f81018713612b2d57600080fd5b8035612b40612b3b82612aa2565b61298c565b818152886020838501011115612b5557600080fd5b8160208401602083013760006020838301015280935050505092959194509250565b60008060408385031215612b8a57600080fd5b8235612b9581612773565b91506020830135612ba581612773565b809150509250929050565b600181811c90821680612bc457607f821691505b60208210811415612be557634e487b7160e01b600052602260045260246000fd5b50919050565b6020808252600d908201526c26b4b73a103737ba1037b832b760991b604082015260600190565b634e487b7160e01b600052601160045260246000fd5b600082821015612c3a57612c3a612c12565b500390565b60208082526031908201527f4552433732313a207472616e736665722063616c6c6572206973206e6f74206f6040820152701ddb995c881b9bdc88185c1c1c9bdd9959607a1b606082015260800190565b6020808252818101527f4f776e61626c653a2063616c6c6572206973206e6f7420746865206f776e6572604082015260600190565b634e487b7160e01b600052603260045260246000fd5b6000600019821415612cef57612cef612c12565b5060010190565b600060208284031215612d0857600080fd5b8151610b9781612773565b60008219821115612d2657612d26612c12565b500190565b600060208284031215612d3d57600080fd5b81516001600160401b03811115612d5357600080fd5b8201601f81018413612d6457600080fd5b8051612d72612b3b82612aa2565b818152856020838501011115612d8757600080fd5b612d988260208301602086016127a5565b95945050505050565b60008151612db38185602086016127a5565b9290920192915050565b6f7b226e616d65223a20225a6f7262202360801b81528451600090612de9816010850160208a016127a5565b7f222c20226465736372697074696f6e223a20225a6f72627320776572652064696010918401918201527f73747269627574656420666f722066726565206279205a4f5241206f6e204e6560308201527f772059656172e280997320323032322e2045616368204e465420696d6275657360508201527f207468652070726f70657274696573206f66206974732077616c6c657420686f60708201527f6c6465722c20616e64207768656e2073656e7420746f20736f6d656f6e65206560908201527f6c73652c2077696c6c207472616e73666f726d2e5c6e5c6e566965772074686960b08201527673204e4654206174205b7a6f72622e6465762f6e66742f60481b60d08201528551612f048160e7840160208a016127a5565b612a61612f62612f5c612f42612f3c60e786880101765d2868747470733a2f2f7a6f72622e6465762f6e66742f60481b815260170190565b8a612da1565b6d149116101134b6b0b3b2911d101160911b8152600e0190565b87612da1565b61227d60f01b815260020190565b7f3c73766720786d6c6e733d22687474703a2f2f7777772e77332e6f72672f323081527f30302f737667222076696577426f783d223020302031313020313130223e3c6460208201527f6566733e3c72616469616c4772616469656e742069643d22677a72222067726160408201527f6469656e745472616e73666f726d3d227472616e736c6174652836362e34353760608201527f382032342e3335373529207363616c652837352e32393038292220677261646960808201527f656e74556e6974733d227573657253706163654f6e5573652220723d2231222060a08201527f63783d2230222063793d223025223e3c73746f70206f66667365743d2231352e60c0820152701b1912911039ba37b816b1b7b637b91e9160791b60e0820152600086516130a68160f1850160208b016127a5565b612a616131bd6131b761318161317b61314361313d6131056130ff60f18a8d01017f22202f3e3c73746f70206f66667365743d2233392e353825222073746f702d6381526537b637b91e9160d11b602082015260260190565b8f612da1565b7f22202f3e3c73746f70206f66667365743d2237322e393225222073746f702d6381526537b637b91e9160d11b602082015260260190565b8c612da1565b7f22202f3e3c73746f70206f66667365743d2239302e363325222073746f702d6381526537b637b91e9160d11b602082015260260190565b89612da1565b7f22202f3e3c73746f70206f66667365743d2231303025222073746f702d636f6c81526337b91e9160e11b602082015260240190565b86612da1565b7f22202f3e3c2f72616469616c4772616469656e743e3c2f646566733e3c67207481527f72616e73666f726d3d227472616e736c61746528352c3529223e3c706174682060208201527f643d224d313030203530433130302032322e333835382037372e36313432203060408201527f20353020304332322e33383538203020302032322e333835382030203530433060608201527f2037372e363134322032322e3338353820313030203530203130304337372e3660808201527f31343220313030203130302037372e36313432203130302035305a222066696c60a08201527f6c3d2275726c2823677a722922202f3e3c70617468207374726f6b653d22726760c08201527f626128302c302c302c302e30373529222066696c6c3d227472616e737061726560e08201527f6e7422207374726f6b652d77696474683d22312220643d224d35302c302e35636101008201527f32372e332c302c34392e352c32322e322c34392e352c34392e355337372e332c6101208201527f39392e352c35302c39392e3553302e352c37372e332c302e352c35305332322e6101408201527f372c302e352c35302c302e357a22202f3e3c2f673e3c2f7376673e000000000061016082015261017b0190565b7f646174613a696d6167652f7376672b786d6c3b6261736536342c0000000000008152600082516133c581601a8501602087016127a5565b91909101601a0192915050565b634e487b7160e01b600052601260045260246000fd5b60208082526032908201527f4552433732313a207472616e7366657220746f206e6f6e20455243373231526560408201527131b2b4bb32b91034b6b83632b6b2b73a32b960711b606082015260800190565b600060ff83168061344d5761344d6133d2565b8060ff84160691505092915050565b600080821280156001600160ff1b038490038513161561347e5761347e612c12565b600160ff1b839003841281161561349757613497612c12565b50500190565b60008083128015600160ff1b8501841216156134bb576134bb612c12565b6001600160ff1b03840183138116156134d6576134d6612c12565b50500390565b60006001600160ff1b038184138284138082168684048611161561350257613502612c12565b600160ff1b600087128281168783058912161561352157613521612c12565b6000871292508782058712848416161561353d5761353d612c12565b8785058712818416161561355357613553612c12565b505050929093029392505050565b600081600019048311821515161561357b5761357b612c12565b500290565b60008261358f5761358f6133d2565b500490565b630d0e6d8560e31b8152600084516135b38160048501602089016127a5565b61016160f51b60049184019182015284516135d58160068401602089016127a5565b6201296160ed1b6006929091019182015283516135f98160098401602088016127a5565b61252960f01b60099290910191820152600b0195945050505050565b6001600160a01b03858116825284166020820152604081018390526080606082018190526000906117f6908301846127d1565b60006020828403121561365a57600080fd5b8151610b9781612740565b600082613674576136746133d2565b50069056fea26469706673582212207ff115a2bf2c60df98ce5f82a34bd604799d183576ebb74af9a93fd148db182b64736f6c634300080a0033",
  "devdoc": {
    "kind": "dev",
    "methods": {
      "airdrop(address[])": {
        "params": {
          "to": "list of addresses to airdrop to"
        }
      },
      "approve(address,uint256)": {
        "details": "See {IERC721-approve}."
      },
      "balanceOf(address)": {
        "details": "See {IERC721-balanceOf}."
      },
      "constructor": {
        "params": {
          "_sharedMetadata": "linked metadata contract"
        }
      },
      "getApproved(uint256)": {
        "details": "See {IERC721-getApproved}."
      },
      "getZorbRenderAddress(uint256)": {
        "params": {
          "tokenId": "id of token to get render address for"
        }
      },
      "isApprovedForAll(address,address)": {
        "details": "See {IERC721-isApprovedForAll}."
      },
      "name()": {
        "details": "See {IERC721Metadata-name}."
      },
      "owner()": {
        "details": "Returns the address of the current owner."
      },
      "ownerOf(uint256)": {
        "details": "See {IERC721-ownerOf}."
      },
      "renounceOwnership()": {
        "details": "Leaves the contract without owner. It will not be possible to call `onlyOwner` functions anymore. Can only be called by the current owner. NOTE: Renouncing ownership will leave the contract without an owner, thereby removing any functionality that is only available to the owner."
      },
      "safeTransferFrom(address,address,uint256)": {
        "details": "See {IERC721-safeTransferFrom}."
      },
      "safeTransferFrom(address,address,uint256,bytes)": {
        "details": "See {IERC721-safeTransferFrom}."
      },
      "setApprovalForAll(address,bool)": {
        "details": "See {IERC721-setApprovalForAll}."
      },
      "setKnownMarketplaces(address[],bool)": {
        "params": {
          "isKnown": "flag if the above marketplaces are known",
          "marketPlaces": "list of addresses"
        }
      },
      "supportsInterface(bytes4)": {
        "details": "See {IERC165-supportsInterface}."
      },
      "symbol()": {
        "details": "See {IERC721Metadata-symbol}."
      },
      "tokenURI(uint256)": {
        "params": {
          "tokenId": "token id to render"
        }
      },
      "transferFrom(address,address,uint256)": {
        "details": "See {IERC721-transferFrom}."
      },
      "transferOwnership(address)": {
        "details": "Transfers ownership of the contract to a new account (`newOwner`). Can only be called by the current owner."
      },
      "zorbForAddress(address)": {
        "params": {
          "user": "address to get Zorb SVG for"
        }
      }
    },
    "version": 1
  },
  "userdoc": {
    "kind": "user",
    "methods": {
      "airdrop(address[])": {
        "notice": "Public airdrop of tokens to _other_ addresses"
      },
      "constructor": {
        "notice": "Make the Zorb contract"
      },
      "getZorbRenderAddress(uint256)": {
        "notice": "Determines the actual rendering address instead of just owner address for given zorb id"
      },
      "mint()": {
        "notice": "Simple public mint function"
      },
      "mintIsOpen()": {
        "notice": "Informational function returning if the mint is currently ongoing"
      },
      "setKnownMarketplaces(address[],bool)": {
        "notice": "Set known marketplace contracts"
      },
      "tokenURI(uint256)": {
        "notice": "TokenURI function returning on-chain encoded SVG for each Zorb"
      },
      "totalSupply()": {
        "notice": "Number of minted tokens."
      },
      "zorbForAddress(address)": {
        "notice": "Public getter for getting the given Zorb for an address"
      }
    },
    "notice": "ZorbNFT Design and Project: tw: lily___digital Solidity: tw: isiain ZORA LABS",
    "version": 1
  },
  "storageLayout": {
    "storage": [
      {
        "astId": 333,
        "contract": "contracts/ZorbNFT.sol:ZorbNFT",
        "label": "_name",
        "offset": 0,
        "slot": "0",
        "type": "t_string_storage"
      },
      {
        "astId": 335,
        "contract": "contracts/ZorbNFT.sol:ZorbNFT",
        "label": "_symbol",
        "offset": 0,
        "slot": "1",
        "type": "t_string_storage"
      },
      {
        "astId": 339,
        "contract": "contracts/ZorbNFT.sol:ZorbNFT",
        "label": "_owners",
        "offset": 0,
        "slot": "2",
        "type": "t_mapping(t_uint256,t_address)"
      },
      {
        "astId": 343,
        "contract": "contracts/ZorbNFT.sol:ZorbNFT",
        "label": "_balances",
        "offset": 0,
        "slot": "3",
        "type": "t_mapping(t_address,t_uint256)"
      },
      {
        "astId": 347,
        "contract": "contracts/ZorbNFT.sol:ZorbNFT",
        "label": "_tokenApprovals",
        "offset": 0,
        "slot": "4",
        "type": "t_mapping(t_uint256,t_address)"
      },
      {
        "astId": 353,
        "contract": "contracts/ZorbNFT.sol:ZorbNFT",
        "label": "_operatorApprovals",
        "offset": 0,
        "slot": "5",
        "type": "t_mapping(t_address,t_mapping(t_address,t_bool))"
      },
      {
        "astId": 210,
        "contract": "contracts/ZorbNFT.sol:ZorbNFT",
        "label": "_owner",
        "offset": 0,
        "slot": "6",
        "type": "t_address"
      },
      {
        "astId": 4405,
        "contract": "contracts/ZorbNFT.sol:ZorbNFT",
        "label": "knownMarketplace",
        "offset": 0,
        "slot": "7",
        "type": "t_mapping(t_address,t_bool)"
      },
      {
        "astId": 4410,
        "contract": "contracts/ZorbNFT.sol:ZorbNFT",
        "label": "lastOwner",
        "offset": 0,
        "slot": "8",
        "type": "t_mapping(t_uint256,t_address)"
      },
      {
        "astId": 4414,
        "contract": "contracts/ZorbNFT.sol:ZorbNFT",
        "label": "currentTokenId",
        "offset": 0,
        "slot": "9",
        "type": "t_struct(Counter)1624_storage"
      }
    ],
    "types": {
      "t_address": {
        "encoding": "inplace",
        "label": "address",
        "numberOfBytes": "20"
      },
      "t_bool": {
        "encoding": "inplace",
        "label": "bool",
        "numberOfBytes": "1"
      },
      "t_mapping(t_address,t_bool)": {
        "encoding": "mapping",
        "key": "t_address",
        "label": "mapping(address => bool)",
        "numberOfBytes": "32",
        "value": "t_bool"
      },
      "t_mapping(t_address,t_mapping(t_address,t_bool))": {
        "encoding": "mapping",
        "key": "t_address",
        "label": "mapping(address => mapping(address => bool))",
        "numberOfBytes": "32",
        "value": "t_mapping(t_address,t_bool)"
      },
      "t_mapping(t_address,t_uint256)": {
        "encoding": "mapping",
        "key": "t_address",
        "label": "mapping(address => uint256)",
        "numberOfBytes": "32",
        "value": "t_uint256"
      },
      "t_mapping(t_uint256,t_address)": {
        "encoding": "mapping",
        "key": "t_uint256",
        "label": "mapping(uint256 => address)",
        "numberOfBytes": "32",
        "value": "t_address"
      },
      "t_string_storage": {
        "encoding": "bytes",
        "label": "string",
        "numberOfBytes": "32"
      },
      "t_struct(Counter)1624_storage": {
        "encoding": "inplace",
        "label": "struct Counters.Counter",
        "members": [
          {
            "astId": 1623,
            "contract": "contracts/ZorbNFT.sol:ZorbNFT",
            "label": "_value",
            "offset": 0,
            "slot": "0",
            "type": "t_uint256"
          }
        ],
        "numberOfBytes": "32"
      },
      "t_uint256": {
        "encoding": "inplace",
        "label": "uint256",
        "numberOfBytes": "32"
      }
    }
  }
}