{
  "address": "0x094cE76Fa460A07794D9c9eebE22fF74Cdc589bC",
  "abi": [
    {
      "inputs": [
        {
          "internalType": "contract IPublicSharedMetadata",
          "name": "_sharedMetadata",
          "type": "address"
        }
      ],
      "stateMutability": "nonpayable",
      "type": "constructor"
    },
    {
      "anonymous": false,
      "inputs": [
        {
          "indexed": true,
          "internalType": "address",
          "name": "owner",
          "type": "address"
        },
        {
          "indexed": true,
          "internalType": "address",
          "name": "approved",
          "type": "address"
        },
        {
          "indexed": true,
          "internalType": "uint256",
          "name": "tokenId",
          "type": "uint256"
        }
      ],
      "name": "Approval",
      "type": "event"
    },
    {
      "anonymous": false,
      "inputs": [
        {
          "indexed": true,
          "internalType": "address",
          "name": "owner",
          "type": "address"
        },
        {
          "indexed": true,
          "internalType": "address",
          "name": "operator",
          "type": "address"
        },
        {
          "indexed": false,
          "internalType": "bool",
          "name": "approved",
          "type": "bool"
        }
      ],
      "name": "ApprovalForAll",
      "type": "event"
    },
    {
      "anonymous": false,
      "inputs": [
        {
          "indexed": true,
          "internalType": "address",
          "name": "previousOwner",
          "type": "address"
        },
        {
          "indexed": true,
          "internalType": "address",
          "name": "newOwner",
          "type": "address"
        }
      ],
      "name": "OwnershipTransferred",
      "type": "event"
    },
    {
      "anonymous": false,
      "inputs": [
        {
          "indexed": true,
          "internalType": "address",
          "name": "from",
          "type": "address"
        },
        {
          "indexed": true,
          "internalType": "address",
          "name": "to",
          "type": "address"
        },
        {
          "indexed": true,
          "internalType": "uint256",
          "name": "tokenId",
          "type": "uint256"
        }
      ],
      "name": "Transfer",
      "type": "event"
    },
    {
      "inputs": [
        {
          "internalType": "address[]",
          "name": "to",
          "type": "address[]"
        }
      ],
      "name": "airdrop",
      "outputs": [],
      "stateMutability": "nonpayable",
      "type": "function"
    },
    {
      "inputs": [
        {
          "internalType": "address",
          "name": "to",
          "type": "address"
        },
        {
          "internalType": "uint256",
          "name": "tokenId",
          "type": "uint256"
        }
      ],
      "name": "approve",
      "outputs": [],
      "stateMutability": "nonpayable",
      "type": "function"
    },
    {
      "inputs": [
        {
          "internalType": "address",
          "name": "owner",
          "type": "address"
        }
      ],
      "name": "balanceOf",
      "outputs": [
        {
          "internalType": "uint256",
          "name": "",
          "type": "uint256"
        }
      ],
      "stateMutability": "view",
      "type": "function"
    },
    {
      "inputs": [
        {
          "internalType": "uint256",
          "name": "tokenId",
          "type": "uint256"
        }
      ],
      "name": "burn",
      "outputs": [],
      "stateMutability": "nonpayable",
      "type": "function"
    },
    {
      "inputs": [
        {
          "internalType": "uint256",
          "name": "tokenId",
          "type": "uint256"
        }
      ],
      "name": "getApproved",
      "outputs": [
        {
          "internalType": "address",
          "name": "",
          "type": "address"
        }
      ],
      "stateMutability": "view",
      "type": "function"
    },
    {
      "inputs": [
        {
          "internalType": "uint256",
          "name": "tokenId",
          "type": "uint256"
        }
      ],
      "name": "getZorbRenderAddress",
      "outputs": [
        {
          "internalType": "address",
          "name": "",
          "type": "address"
        }
      ],
      "stateMutability": "view",
      "type": "function"
    },
    {
      "inputs": [
        {
          "internalType": "address",
          "name": "owner",
          "type": "address"
        },
        {
          "internalType": "address",
          "name": "operator",
          "type": "address"
        }
      ],
      "name": "isApprovedForAll",
      "outputs": [
        {
          "internalType": "bool",
          "name": "",
          "type": "bool"
        }
      ],
      "stateMutability": "view",
      "type": "function"
    },
    {
      "inputs": [],
      "name": "mint",
      "outputs": [],
      "stateMutability": "nonpayable",
      "type": "function"
    },
    {
      "inputs": [],
      "name": "mintIsOpen",
      "outputs": [
        {
          "internalType": "bool",
          "name": "",
          "type": "bool"
        }
      ],
      "stateMutability": "view",
      "type": "function"
    },
    {
      "inputs": [],
      "name": "name",
      "outputs": [
        {
          "internalType": "string",
          "name": "",
          "type": "string"
        }
      ],
      "stateMutability": "view",
      "type": "function"
    },
    {
      "inputs": [],
      "name": "owner",
      "outputs": [
        {
          "internalType": "address",
          "name": "",
          "type": "address"
        }
      ],
      "stateMutability": "view",
      "type": "function"
    },
    {
      "inputs": [
        {
          "internalType": "uint256",
          "name": "tokenId",
          "type": "uint256"
        }
      ],
      "name": "ownerOf",
      "outputs": [
        {
          "internalType": "address",
          "name": "",
          "type": "address"
        }
      ],
      "stateMutability": "view",
      "type": "function"
    },
    {
      "inputs": [],
      "name": "renounceOwnership",
      "outputs": [],
      "stateMutability": "nonpayable",
      "type": "function"
    },
    {
      "inputs": [
        {
          "internalType": "address",
          "name": "from",
          "type": "address"
        },
        {
          "internalType": "address",
          "name": "to",
          "type": "address"
        },
        {
          "internalType": "uint256",
          "name": "tokenId",
          "type": "uint256"
        }
      ],
      "name": "safeTransferFrom",
      "outputs": [],
      "stateMutability": "nonpayable",
      "type": "function"
    },
    {
      "inputs": [
        {
          "internalType": "address",
          "name": "from",
          "type": "address"
        },
        {
          "internalType": "address",
          "name": "to",
          "type": "address"
        },
        {
          "internalType": "uint256",
          "name": "tokenId",
          "type": "uint256"
        },
        {
          "internalType": "bytes",
          "name": "_data",
          "type": "bytes"
        }
      ],
      "name": "safeTransferFrom",
      "outputs": [],
      "stateMutability": "nonpayable",
      "type": "function"
    },
    {
      "inputs": [
        {
          "internalType": "address",
          "name": "operator",
          "type": "address"
        },
        {
          "internalType": "bool",
          "name": "approved",
          "type": "bool"
        }
      ],
      "name": "setApprovalForAll",
      "outputs": [],
      "stateMutability": "nonpayable",
      "type": "function"
    },
    {
      "inputs": [
        {
          "internalType": "address[]",
          "name": "marketPlaces",
          "type": "address[]"
        },
        {
          "internalType": "bool",
          "name": "isKnown",
          "type": "bool"
        }
      ],
      "name": "setKnownMarketplaces",
      "outputs": [],
      "stateMutability": "nonpayable",
      "type": "function"
    },
    {
      "inputs": [
        {
          "internalType": "bytes4",
          "name": "interfaceId",
          "type": "bytes4"
        }
      ],
      "name": "supportsInterface",
      "outputs": [
        {
          "internalType": "bool",
          "name": "",
          "type": "bool"
        }
      ],
      "stateMutability": "view",
      "type": "function"
    },
    {
      "inputs": [],
      "name": "symbol",
      "outputs": [
        {
          "internalType": "string",
          "name": "",
          "type": "string"
        }
      ],
      "stateMutability": "view",
      "type": "function"
    },
    {
      "inputs": [
        {
          "internalType": "uint256",
          "name": "tokenId",
          "type": "uint256"
        }
      ],
      "name": "tokenURI",
      "outputs": [
        {
          "internalType": "string",
          "name": "",
          "type": "string"
        }
      ],
      "stateMutability": "view",
      "type": "function"
    },
    {
      "inputs": [],
      "name": "totalSupply",
      "outputs": [
        {
          "internalType": "uint256",
          "name": "",
          "type": "uint256"
        }
      ],
      "stateMutability": "view",
      "type": "function"
    },
    {
      "inputs": [
        {
          "internalType": "address",
          "name": "from",
          "type": "address"
        },
        {
          "internalType": "address",
          "name": "to",
          "type": "address"
        },
        {
          "internalType": "uint256",
          "name": "tokenId",
          "type": "uint256"
        }
      ],
      "name": "transferFrom",
      "outputs": [],
      "stateMutability": "nonpayable",
      "type": "function"
    },
    {
      "inputs": [
        {
          "internalType": "address",
          "name": "newOwner",
          "type": "address"
        }
      ],
      "name": "transferOwnership",
      "outputs": [],
      "stateMutability": "nonpayable",
      "type": "function"
    },
    {
      "inputs": [
        {
          "internalType": "address",
          "name": "user",
          "type": "address"
        }
      ],
      "name": "zorbForAddress",
      "outputs": [
        {
          "internalType": "string",
          "name": "",
          "type": "string"
        }
      ],
      "stateMutability": "view",
      "type": "function"
    }
  ],
  "transactionHash": "0xb52c991b23bb22228b887db813a4a18c3b6299c5a16dabf6057aeba58568011d",
  "args": [
    "0x2a3245d54E5407E276c47f0C181a22bf90c797Ce"
  ],
  "solcInputHash": "4ae5d675f0ee75b65e0f3475fb7a670f",
  "bytecode": "0x60a06040523480156200001157600080fd5b506040516200384f3803806200384f8339810160408190526200003491620001e1565b60408051808201825260058152645a6f72627360d81b6020808301918252835180850190945260048452632d27a92160e11b9084015281519192916200007d916000916200013b565b508051620000939060019060208401906200013b565b505050620000b0620000aa620000dc60201b60201c565b620000e0565b6001600160a01b038116608052620000d5600962000132602090811b62000e3117901c565b5062000250565b3390565b600680546001600160a01b038381166001600160a01b0319831681179093556040519116919082907f8be0079c531659141344cd1fd0a4f28419497f9722a3daafe3b4186f6b6457e090600090a35050565b80546001019055565b828054620001499062000213565b90600052602060002090601f0160209004810192826200016d5760008555620001b8565b82601f106200018857805160ff1916838001178555620001b8565b82800160010185558215620001b8579182015b82811115620001b85782518255916020019190600101906200019b565b50620001c6929150620001ca565b5090565b5b80821115620001c65760008155600101620001cb565b600060208284031215620001f457600080fd5b81516001600160a01b03811681146200020c57600080fd5b9392505050565b600181811c908216806200022857607f821691505b602082108114156200024a57634e487b7160e01b600052602260045260246000fd5b50919050565b6080516135dc6200027360003960008181610b240152610c7d01526135dc6000f3fe608060405234801561001057600080fd5b50600436106101585760003560e01c8063715018a6116100c3578063aa1152ab1161007c578063aa1152ab146102bb578063b88d4fde146102c3578063c87b56dd146102d6578063de909942146102e9578063e985e9c5146102fc578063f2fde38b1461030f57600080fd5b8063715018a61461026a578063729ad39e146102725780638da5cb5b1461028557806391557ac41461028d57806395d89b41146102a0578063a22cb465146102a857600080fd5b806323b872dd1161011557806323b872dd146101f857806342842e0e1461020b57806342966c681461021e5780636352211e146102315780636411fb451461024457806370a082311461025757600080fd5b806301ffc9a71461015d57806306fdde0314610185578063081812fc1461019a578063095ea7b3146101c55780631249c58b146101da57806318160ddd146101e2575b600080fd5b61017061016b36600461289a565b610322565b60405190151581526020015b60405180910390f35b61018d610374565b60405161017c9190612916565b6101ad6101a8366004612929565b610406565b6040516001600160a01b03909116815260200161017c565b6101d86101d3366004612957565b610493565b005b6101d86105a4565b6101ea610605565b60405190815260200161017c565b6101d8610206366004612983565b610615565b6101d8610219366004612983565b610647565b6101d861022c366004612929565b610662565b6101ad61023f366004612929565b6106dc565b6101d86102523660046129d4565b610753565b6101ea610265366004612a57565b6107f9565b6101d8610880565b6101d8610280366004612aba565b6108b9565b6101ad610972565b6101ad61029b366004612929565b610981565b61018d610a58565b6101d86102b6366004612b6b565b610a67565b610170610a72565b6101d86102d1366004612bc7565b610a9b565b61018d6102e4366004612929565b610acd565b61018d6102f7366004612a57565b610c4e565b61017061030a366004612c75565b610d66565b6101d861031d366004612a57565b610d94565b60006001600160e01b031982166380ac58cd60e01b148061035357506001600160e01b03198216635b5e139f60e01b145b8061036e57506301ffc9a760e01b6001600160e01b03198316145b92915050565b60606000805461038390612cae565b80601f01602080910402602001604051908101604052809291908181526020018280546103af90612cae565b80156103fc5780601f106103d1576101008083540402835291602001916103fc565b820191906000526020600020905b8154815290600101906020018083116103df57829003601f168201915b5050505050905090565b600061041182610e3a565b6104775760405162461bcd60e51b815260206004820152602c60248201527f4552433732313a20617070726f76656420717565727920666f72206e6f6e657860448201526b34b9ba32b73a103a37b5b2b760a11b60648201526084015b60405180910390fd5b506000908152600460205260409020546001600160a01b031690565b600061049e826106dc565b9050806001600160a01b0316836001600160a01b0316141561050c5760405162461bcd60e51b815260206004820152602160248201527f4552433732313a20617070726f76616c20746f2063757272656e74206f776e656044820152603960f91b606482015260840161046e565b336001600160a01b038216148061052857506105288133610d66565b6105955760405162461bcd60e51b815260206004820152603860248201527f4552433732313a20617070726f76652063616c6c6572206973206e6f74206f776044820152771b995c881b9bdc88185c1c1c9bdd995908199bdc88185b1b60421b606482015260840161046e565b61059f8383610e57565b505050565b6105ac610a72565b6105e35760405162461bcd60e51b81526020600482015260086024820152673737ba1037b832b760c11b604482015260640161046e565b6105f5336105f060095490565b610ec5565b610603600980546001019055565b565b600061061060095490565b905090565b610620335b82610ff2565b61063c5760405162461bcd60e51b815260040161046e90612ce9565b61059f8383836110bc565b61059f83838360405180602001604052806000815250610a9b565b61066b3361061a565b6106d05760405162461bcd60e51b815260206004820152603060248201527f4552433732314275726e61626c653a2063616c6c6572206973206e6f74206f7760448201526f1b995c881b9bdc88185c1c1c9bdd995960821b606482015260840161046e565b6106d981611255565b50565b6000818152600260205260408120546001600160a01b03168061036e5760405162461bcd60e51b815260206004820152602960248201527f4552433732313a206f776e657220717565727920666f72206e6f6e657869737460448201526832b73a103a37b5b2b760b91b606482015260840161046e565b3361075c610972565b6001600160a01b0316146107825760405162461bcd60e51b815260040161046e90612d3a565b60005b828110156107f35781600760008686858181106107a4576107a4612d6f565b90506020020160208101906107b99190612a57565b6001600160a01b031681526020810191909152604001600020805460ff1916911515919091179055806107eb81612d9b565b915050610785565b50505050565b60006001600160a01b0382166108645760405162461bcd60e51b815260206004820152602a60248201527f4552433732313a2062616c616e636520717565727920666f7220746865207a65604482015269726f206164647265737360b01b606482015260840161046e565b506001600160a01b031660009081526003602052604090205490565b33610889610972565b6001600160a01b0316146108af5760405162461bcd60e51b815260040161046e90612d3a565b61060360006112ea565b6108c1610a72565b806108e457506108cf610972565b6001600160a01b0316336001600160a01b0316145b61091c5760405162461bcd60e51b815260206004820152600960248201526827b7363c9037b832b760b91b604482015260640161046e565b60005b815181101561096e5761094e82828151811061093d5761093d612d6f565b60200260200101516105f060095490565b61095c600980546001019055565b8061096681612d9b565b91505061091f565b5050565b6006546001600160a01b031690565b6040516331a9108f60e11b81526004810182905260009081903090636352211e9060240160206040518083038186803b1580156109bd57600080fd5b505afa1580156109d1573d6000803e3d6000fd5b505050506040513d601f19601f820116820180604052508101906109f59190612db6565b6001600160a01b03811660009081526007602052604090205490915060ff168015610a3657506000838152600860205260409020546001600160a01b031615155b1561036e5750506000908152600860205260409020546001600160a01b031690565b60606001805461038390612cae565b61096e33838361133c565b60006361ce8b01421180156106105750610a936215f9006361ce8b01612dd3565b421115905090565b610aa53383610ff2565b610ac15760405162461bcd60e51b815260040161046e90612ce9565b6107f384848484611407565b6060610ad882610e3a565b610b0f5760405162461bcd60e51b81526020600482015260086024820152672737903a37b5b2b760c11b604482015260640161046e565b60405162b86e3360e51b8152600481018390527f00000000000000000000000000000000000000000000000000000000000000006001600160a01b03169063d01fde8c90829063170dc6609060240160006040518083038186803b158015610b7657600080fd5b505afa158015610b8a573d6000803e3d6000fd5b505050506040513d6000823e601f3d908101601f19168201604052610bb29190810190612deb565b610bbe6102f786610981565b604051602001610bcf929190612e7d565b6040516020818303038152906040526040518263ffffffff1660e01b8152600401610bfa9190612916565b60006040518083038186803b158015610c1257600080fd5b505afa158015610c26573d6000803e3d6000fd5b505050506040513d6000823e601f3d908101601f1916820160405261036e9190810190612deb565b60606000610c5b8361143a565b80516020808301516040808501516060860151608087015192519697506000967f00000000000000000000000000000000000000000000000000000000000000006001600160a01b03169663d5fb1b1996610cbc9691959194939201612ff9565b6040516020818303038152906040526040518263ffffffff1660e01b8152600401610ce79190612916565b60006040518083038186803b158015610cff57600080fd5b505afa158015610d13573d6000803e3d6000fd5b505050506040513d6000823e601f3d908101601f19168201604052610d3b9190810190612deb565b905080604051602001610d4e9190613283565b60405160208183030381529060405292505050919050565b6001600160a01b03918216600090815260056020908152604080832093909416825291909152205460ff1690565b33610d9d610972565b6001600160a01b031614610dc35760405162461bcd60e51b815260040161046e90612d3a565b6001600160a01b038116610e285760405162461bcd60e51b815260206004820152602660248201527f4f776e61626c653a206e6577206f776e657220697320746865207a65726f206160448201526564647265737360d01b606482015260840161046e565b6106d9816112ea565b80546001019055565b6000908152600260205260409020546001600160a01b0316151590565b600081815260046020526040902080546001600160a01b0319166001600160a01b0384169081179091558190610e8c826106dc565b6001600160a01b03167f8c5be1e5ebec7d5bd14f71427d1e84f3dd0314c0f7b2291e5b200ac8c7c3b92560405160405180910390a45050565b6001600160a01b038216610f1b5760405162461bcd60e51b815260206004820181905260248201527f4552433732313a206d696e7420746f20746865207a65726f2061646472657373604482015260640161046e565b610f2481610e3a565b15610f715760405162461bcd60e51b815260206004820152601c60248201527f4552433732313a20746f6b656e20616c7265616479206d696e74656400000000604482015260640161046e565b610f7d6000838361171e565b6001600160a01b0382166000908152600360205260408120805460019290610fa6908490612dd3565b909155505060008181526002602052604080822080546001600160a01b0319166001600160a01b0386169081179091559051839290600080516020613587833981519152908290a45050565b6000610ffd82610e3a565b61105e5760405162461bcd60e51b815260206004820152602c60248201527f4552433732313a206f70657261746f7220717565727920666f72206e6f6e657860448201526b34b9ba32b73a103a37b5b2b760a11b606482015260840161046e565b6000611069836106dc565b9050806001600160a01b0316846001600160a01b031614806110a45750836001600160a01b031661109984610406565b6001600160a01b0316145b806110b457506110b48185610d66565b949350505050565b826001600160a01b03166110cf826106dc565b6001600160a01b0316146111375760405162461bcd60e51b815260206004820152602960248201527f4552433732313a207472616e73666572206f6620746f6b656e2074686174206960448201526839903737ba1037bbb760b91b606482015260840161046e565b6001600160a01b0382166111995760405162461bcd60e51b8152602060048201526024808201527f4552433732313a207472616e7366657220746f20746865207a65726f206164646044820152637265737360e01b606482015260840161046e565b6111a483838361171e565b6111af600082610e57565b6001600160a01b03831660009081526003602052604081208054600192906111d89084906132c8565b90915550506001600160a01b0382166000908152600360205260408120805460019290611206908490612dd3565b909155505060008181526002602052604080822080546001600160a01b0319166001600160a01b03868116918217909255915184939187169160008051602061358783398151915291a4505050565b6000611260826106dc565b905061126e8160008461171e565b611279600083610e57565b6001600160a01b03811660009081526003602052604081208054600192906112a29084906132c8565b909155505060008281526002602052604080822080546001600160a01b0319169055518391906001600160a01b03841690600080516020613587833981519152908390a45050565b600680546001600160a01b038381166001600160a01b0319831681179093556040519116919082907f8be0079c531659141344cd1fd0a4f28419497f9722a3daafe3b4186f6b6457e090600090a35050565b816001600160a01b0316836001600160a01b0316141561139a5760405162461bcd60e51b815260206004820152601960248201527822a9219b99189d1030b8383937bb32903a379031b0b63632b960391b604482015260640161046e565b6001600160a01b03838116600081815260056020908152604080832094871680845294825291829020805460ff191686151590811790915591519182527f17307eab39ab6107e8899845ad3d59bd9653f200f220920489ca2b5937696c31910160405180910390a3505050565b6114128484846110bc565b61141e8484848461176d565b6107f35760405162461bcd60e51b815260040161046e906132df565b61144261285d565b6001600160a01b038216600060118260131a6018028161146457611464613331565b0490506000602283601d1a6005028161147f5761147f613331565b046020019050606160338460171a6005028161149d5761149d613331565b0401604801600281049050600060108560181a816114bd576114bd613331565b04605101905060006080866015600b91901a0260ff16816114e0576114e0613331565b046046019050600a82038111156114f8575060091981015b6040805160a081019091528061157261152d89601c1a60028b60191a8161152157611521613331565b0660ff168a600061187a565b61154d60028b601c1a8161154357611543613331565b06878760646119ce565b61156d60028c601a1a8161156357611563613331565b068a8a6064611a16565b611a8e565b81526020016115e06115a089601c1a60028b60191a8161159457611594613331565b0660ff168a600a61187a565b6115c060028b601c1a816115b6576115b6613331565b068787605a6119ce565b61156d60028c601a1a816115d6576115d6613331565b068a8a605a611a16565b815260200161164e61160e89601c1a60028b60191a8161160257611602613331565b0660ff168a604661187a565b61162e60028b601c1a8161162457611624613331565b06878760466119ce565b61156d60028c601a1a8161164457611644613331565b068a8a6046611a16565b81526020016116bc61167c89601c1a60028b60191a8161167057611670613331565b0660ff168a605a61187a565b61169c60028b601c1a8161169257611692613331565b06878760146119ce565b61156d60028c601a1a816116b2576116b2613331565b068a8a6014611a16565b81526020016117106116ea89601c1a60028b60191a816116de576116de613331565b0660ff168a606461187a565b61170a60028b601c1a8161170057611700613331565b06878760006119ce565b88611a8e565b905298975050505050505050565b6001600160a01b03821660009081526007602052604090205460ff161561059f57600081815260086020526040902080546001600160a01b0385166001600160a01b0319909116179055505050565b60006001600160a01b0384163b1561186f57604051630a85bd0160e11b81526001600160a01b0385169063150b7a02906117b1903390899088908890600401613347565b602060405180830381600087803b1580156117cb57600080fd5b505af19250505080156117fb575060408051601f3d908101601f191682019092526117f89181019061337a565b60015b611855573d808015611829576040519150601f19603f3d011682016040523d82523d6000602084013e61182e565b606091505b50805161184d5760405162461bcd60e51b815260040161046e906132df565b805181602001fd5b6001600160e01b031916630a85bd0160e11b1490506110b4565b506001949350505050565b600080611888600487613397565b60ff16905083816118f5576118ec86156118ac576118a782600a6133b9565b6118b7565b6118b7600a836133fa565b6118c49060ff8716613439565b826118d360ff881660646133fa565b6118dd9190613439565b6118e791906133b9565b611ad5565b925050506110b4565b816001141561191d576118ec8615611912576118a782601e6133b9565b6118b7601e836133fa565b8160021415611978576118ec861561193f5761193a8260326133b9565b61194a565b61194a6032836133fa565b6119568660ff16611b08565b6119609190613439565b8261196d8760ff16611b08565b6118d39060646133fa565b6119c360808860ff161161198d576000611990565b60015b60ff1687156119a057603c6119a4565b603b195b6119ae9190613439565b6119b890836133b9565b61194a90601e6133b9565b979650505050505050565b60008060ff86166119fe576119e283611ffe565b60ff1690506064818103860285830201046001019150506110b4565b50816064818103860285830201049695505050505050565b60008060ff8616611a3457611a2a83611ffe565b60ff169050611a43565b611a3d8361235a565b60ff1690505b6064611a4f85836134be565b86611a5b8460646132c8565b611a6591906134be565b611a6f9190612dd3565b611a7991906134dd565b611a84906001612dd3565b9695505050505050565b6060611a9984612760565b611aa284612760565b611aab84612760565b604051602001611abd939291906134f1565b60405160208183030381529060405290509392505050565b606490056000808212611aee57610168825b0692915050565b610168826000190281611ae757611ae7613331565b919050565b6000600d8261ffff161015611b1f57506000919050565b60118261ffff161015611b3457506001919050565b60138261ffff161015611b4957506002919050565b60158261ffff161015611b5e57506003919050565b60178261ffff161015611b7357506004919050565b60188261ffff161015611b8857506005919050565b60198261ffff161015611b9d57506006919050565b601b8261ffff161015611bb257506007919050565b601c8261ffff161015611bc757506008919050565b601d8261ffff161015611bdc57506009919050565b601e8261ffff161015611bf15750600a919050565b601f8261ffff161015611c065750600b919050565b60208261ffff161015611c1b5750600d919050565b60218261ffff161015611c305750600e919050565b60228261ffff161015611c455750600f919050565b60238261ffff161015611c5a57506011919050565b60248261ffff161015611c6f57506012919050565b60258261ffff161015611c8457506014919050565b60268261ffff161015611c9957506015919050565b60278261ffff161015611cae57506017919050565b60288261ffff161015611cc357506019919050565b60298261ffff161015611cd85750601b919050565b602a8261ffff161015611ced5750601d919050565b602b8261ffff161015611d025750601f919050565b602c8261ffff161015611d1757506022919050565b602d8261ffff161015611d2c57506024919050565b602e8261ffff161015611d4157506026919050565b602f8261ffff161015611d5657506029919050565b60308261ffff161015611d6b5750602c919050565b60318261ffff161015611d805750602f919050565b60328261ffff161015611d9557506032919050565b60338261ffff161015611daa57506034919050565b60348261ffff161015611dbf57506037919050565b60358261ffff161015611dd45750603a919050565b60368261ffff161015611de95750603d919050565b60378261ffff161015611dfe5750603f919050565b60388261ffff161015611e1357506041919050565b60398261ffff161015611e2857506044919050565b603a8261ffff161015611e3d57506046919050565b603b8261ffff161015611e5257506048919050565b603c8261ffff161015611e675750604a919050565b603d8261ffff161015611e7c5750604c919050565b603e8261ffff161015611e915750604e919050565b603f8261ffff161015611ea65750604f919050565b60408261ffff161015611ebb57506051919050565b60418261ffff161015611ed057506052919050565b60428261ffff161015611ee557506054919050565b60438261ffff161015611efa57506055919050565b60448261ffff161015611f0f57506056919050565b60458261ffff161015611f2457506058919050565b60468261ffff161015611f3957506059919050565b60478261ffff161015611f4e5750605a919050565b60488261ffff161015611f635750605b919050565b604a8261ffff161015611f785750605c919050565b604b8261ffff161015611f8d5750605d919050565b604c8261ffff161015611fa25750605e919050565b604e8261ffff161015611fb75750605f919050565b60508261ffff161015611fcc57506060919050565b60528261ffff161015611fe157506061919050565b60568261ffff161015611ff657506062919050565b506063919050565b6000602782101561201157506000919050565b602d82101561202257506001919050565b603182101561203357506002919050565b603482101561204457506003919050565b603582101561205557506004919050565b603682101561206657506004919050565b603782101561207757506005919050565b603882101561208857506005919050565b603982101561209957506006919050565b603a8210156120aa57506006919050565b603b8210156120bb57506007919050565b603c8210156120cc57506007919050565b603d8210156120dd57506008919050565b603e8210156120ee57506009919050565b603f8210156120ff57506009919050565b60408210156121105750600a919050565b60418210156121215750600b919050565b60428210156121325750600c919050565b60438210156121435750600d919050565b60448210156121545750600e919050565b60458210156121655750600f919050565b604682101561217657506010919050565b604782101561218757506012919050565b604882101561219857506013919050565b60498210156121a957506014919050565b604a8210156121ba57506016919050565b604b8210156121cb57506017919050565b604c8210156121dc57506019919050565b604d8210156121ed5750601b919050565b604e8210156121fe5750601c919050565b604f82101561220f5750601e919050565b605082101561222057506020919050565b605182101561223157506022919050565b605282101561224257506025919050565b605382101561225357506027919050565b605482101561226457506029919050565b60558210156122755750602c919050565b60568210156122865750602f919050565b605782101561229757506031919050565b60588210156122a857506034919050565b60598210156122b957506037919050565b605a8210156122ca5750603b919050565b605b8210156122db5750603e919050565b605c8210156122ec57506041919050565b605d8210156122fd57506045919050565b605e82101561230e57506049919050565b605f82101561231f5750604d919050565b606082101561233057506051919050565b606182101561234157506055919050565b60628210156123525750605a919050565b50605f919050565b6000601682101561236d57506000919050565b601c82101561237e57506001919050565b602082101561238f57506002919050565b60208210156123a057506003919050565b60228210156123b157506003919050565b60248210156123c257506004919050565b60278210156123d357506005919050565b60298210156123e457506006919050565b602b8210156123f557506007919050565b602e82101561240657506009919050565b602f8210156124175750600a919050565b60318210156124285750600b919050565b60328210156124395750600c919050565b603382101561244a5750600d919050565b603582101561245b5750600e919050565b603682101561246c5750600f919050565b603782101561247d57506010919050565b603882101561248e57506011919050565b603982101561249f57506012919050565b603a8210156124b057506013919050565b603b8210156124c157506014919050565b603c8210156124d257506015919050565b603d8210156124e357506016919050565b603e8210156124f457506017919050565b603f82101561250557506019919050565b60408210156125165750601a919050565b60418210156125275750601b919050565b60428210156125385750601c919050565b60438210156125495750601e919050565b604482101561255a5750601f919050565b604582101561256b57506020919050565b604682101561257c57506022919050565b604782101561258d57506023919050565b604882101561259e57506025919050565b60498210156125af57506026919050565b604a8210156125c057506028919050565b604b8210156125d15750602a919050565b604c8210156125e25750602b919050565b604d8210156125f35750602d919050565b604e8210156126045750602f919050565b604f82101561261557506031919050565b605082101561262657506033919050565b605182101561263757506035919050565b605282101561264857506037919050565b605382101561265957506039919050565b605482101561266a5750603b919050565b605582101561267b5750603d919050565b605682101561268c5750603f919050565b605782101561269d57506041919050565b60588210156126ae57506044919050565b60598210156126bf57506046919050565b605a8210156126d057506048919050565b605b8210156126e15750604b919050565b605c8210156126f25750604d919050565b605d82101561270357506050919050565b605e82101561271457506053919050565b605f82101561272557506055919050565b606082101561273657506058919050565b60618210156127475750605b919050565b60628210156127585750605e919050565b506061919050565b6060816127845750506040805180820190915260018152600360fc1b602082015290565b8160005b81156127ae578061279881612d9b565b91506127a79050600a836134dd565b9150612788565b6000816001600160401b038111156127c8576127c8612a74565b6040519080825280601f01601f1916602001820160405280156127f2576020820181803683370190505b5090505b84156110b4576128076001836132c8565b9150612814600a86613572565b61281f906030612dd3565b60f81b81838151811061283457612834612d6f565b60200101906001600160f81b031916908160001a905350612856600a866134dd565b94506127f6565b6040518060a001604052806005905b606081526020019060019003908161286c5790505090565b6001600160e01b0319811681146106d957600080fd5b6000602082840312156128ac57600080fd5b81356128b781612884565b9392505050565b60005b838110156128d95781810151838201526020016128c1565b838111156107f35750506000910152565b600081518084526129028160208601602086016128be565b601f01601f19169290920160200192915050565b6020815260006128b760208301846128ea565b60006020828403121561293b57600080fd5b5035919050565b6001600160a01b03811681146106d957600080fd5b6000806040838503121561296a57600080fd5b823561297581612942565b946020939093013593505050565b60008060006060848603121561299857600080fd5b83356129a381612942565b925060208401356129b381612942565b929592945050506040919091013590565b80358015158114611b0357600080fd5b6000806000604084860312156129e957600080fd5b83356001600160401b0380821115612a0057600080fd5b818601915086601f830112612a1457600080fd5b813581811115612a2357600080fd5b8760208260051b8501011115612a3857600080fd5b602092830195509350612a4e91860190506129c4565b90509250925092565b600060208284031215612a6957600080fd5b81356128b781612942565b634e487b7160e01b600052604160045260246000fd5b604051601f8201601f191681016001600160401b0381118282101715612ab257612ab2612a74565b604052919050565b60006020808385031215612acd57600080fd5b82356001600160401b0380821115612ae457600080fd5b818501915085601f830112612af857600080fd5b813581811115612b0a57612b0a612a74565b8060051b9150612b1b848301612a8a565b8181529183018401918481019088841115612b3557600080fd5b938501935b83851015612b5f5784359250612b4f83612942565b8282529385019390850190612b3a565b98975050505050505050565b60008060408385031215612b7e57600080fd5b8235612b8981612942565b9150612b97602084016129c4565b90509250929050565b60006001600160401b03821115612bb957612bb9612a74565b50601f01601f191660200190565b60008060008060808587031215612bdd57600080fd5b8435612be881612942565b93506020850135612bf881612942565b92506040850135915060608501356001600160401b03811115612c1a57600080fd5b8501601f81018713612c2b57600080fd5b8035612c3e612c3982612ba0565b612a8a565b818152886020838501011115612c5357600080fd5b8160208401602083013760006020838301015280935050505092959194509250565b60008060408385031215612c8857600080fd5b8235612c9381612942565b91506020830135612ca381612942565b809150509250929050565b600181811c90821680612cc257607f821691505b60208210811415612ce357634e487b7160e01b600052602260045260246000fd5b50919050565b60208082526031908201527f4552433732313a207472616e736665722063616c6c6572206973206e6f74206f6040820152701ddb995c881b9bdc88185c1c1c9bdd9959607a1b606082015260800190565b6020808252818101527f4f776e61626c653a2063616c6c6572206973206e6f7420746865206f776e6572604082015260600190565b634e487b7160e01b600052603260045260246000fd5b634e487b7160e01b600052601160045260246000fd5b6000600019821415612daf57612daf612d85565b5060010190565b600060208284031215612dc857600080fd5b81516128b781612942565b60008219821115612de657612de6612d85565b500190565b600060208284031215612dfd57600080fd5b81516001600160401b03811115612e1357600080fd5b8201601f81018413612e2457600080fd5b8051612e32612c3982612ba0565b818152856020838501011115612e4757600080fd5b612e588260208301602086016128be565b95945050505050565b60008151612e738185602086016128be565b9290920192915050565b747b226e616d65223a20225a6f7261205a6f7262202360581b81528251600090612eae8160158501602088016128be565b7f222c20226465736372697074696f6e223a20225a6f7261205a6f7262204e65776015918401918201526f102cb2b0b93990223937b8101918191960811b60358201527f5c6e5c6e43656c656272617465205a6f7261207769746820796f7572206f776e60458201527f20756e69717565205a6f72625c6e5c6e5b68747470733a2f2f7a6f72622e646560658201527f762f5d287a6f72622e646576295c6e5c6e5768656e205a6f726273206172652060858201527f736f6c64206f72207472616e736665727265642c20746865792075706461746560a58201527f20746f207265666c65637420746865207a6f7262206f6620746865206375727260c58201527632b73a1037bbb732b9171116101134b6b0b3b2911d101160491b60e58201528351612fe28160fc8401602088016128be565b611a8460fc8284010161227d60f01b815260020190565b7f3c73766720786d6c6e733d22687474703a2f2f7777772e77332e6f72672f323081527f30302f737667222076696577426f783d223020302032323020323230223e3c6460208201527f6566733e3c72616469616c4772616469656e742066783d2236362e343625222060408201527f66793d2232342e333625222069643d2267726164223e3c73746f70206f66667360608201527732ba1e91189a971b1912911039ba37b816b1b7b637b91e9160411b6080820152600086516130c4816098850160208b016128be565b7f22202f3e3c73746f70206f66667365743d2233392e353825222073746f702d636098918401918201526537b637b91e9160d11b60b8820181905287516131128160be850160208c016128be565b7f22202f3e3c73746f70206f66667365743d2237322e393225222073746f702d6360be939091019283015260de820152612b5f6131d86131d261319c61319661315e60e487018c612e61565b7f22202f3e3c73746f70206f66667365743d2239302e363325222073746f702d6381526537b637b91e9160d11b602082015260260190565b89612e61565b7f22202f3e3c73746f70206f66667365743d2231303025222073746f702d636f6c81526337b91e9160e11b602082015260240190565b86612e61565b7f22202f3e3c2f72616469616c4772616469656e743e3c2f646566733e3c67207481527f72616e73666f726d3d227472616e736c61746528313020313029207363616c6560208201527f28302e3929223e3c636972636c652063783d22353025222063793d223530252260408201527f20723d22353025222066696c6c3d2275726c2823677261642922202f3e3c2f676060820152661f1e17b9bb339f60c91b608082015260870190565b7f646174613a696d6167652f7376672b786d6c3b6261736536342c0000000000008152600082516132bb81601a8501602087016128be565b91909101601a0192915050565b6000828210156132da576132da612d85565b500390565b60208082526032908201527f4552433732313a207472616e7366657220746f206e6f6e20455243373231526560408201527131b2b4bb32b91034b6b83632b6b2b73a32b960711b606082015260800190565b634e487b7160e01b600052601260045260246000fd5b6001600160a01b0385811682528416602082015260408101839052608060608201819052600090611a84908301846128ea565b60006020828403121561338c57600080fd5b81516128b781612884565b600060ff8316806133aa576133aa613331565b8060ff84160691505092915050565b600080821280156001600160ff1b03849003851316156133db576133db612d85565b600160ff1b83900384128116156133f4576133f4612d85565b50500190565b60008083128015600160ff1b85018412161561341857613418612d85565b6001600160ff1b038401831381161561343357613433612d85565b50500390565b60006001600160ff1b038184138284138082168684048611161561345f5761345f612d85565b600160ff1b600087128281168783058912161561347e5761347e612d85565b6000871292508782058712848416161561349a5761349a612d85565b878505871281841616156134b0576134b0612d85565b505050929093029392505050565b60008160001904831182151516156134d8576134d8612d85565b500290565b6000826134ec576134ec613331565b500490565b630d0e6d8560e31b8152600084516135108160048501602089016128be565b61016160f51b60049184019182015284516135328160068401602089016128be565b6201296160ed1b6006929091019182015283516135568160098401602088016128be565b61252960f01b60099290910191820152600b0195945050505050565b60008261358157613581613331565b50069056feddf252ad1be2c89b69c2b068fc378daa952ba7f163c4a11628f55a4df523b3efa26469706673582212200c9fb9d06c738ca6e843d104aec7a9f74dcfab23cbd53363af14e45cb7f695e964736f6c63430008090033",
  "devdoc": {
    "kind": "dev",
    "methods": {
      "approve(address,uint256)": {
        "details": "See {IERC721-approve}."
      },
      "balanceOf(address)": {
        "details": "See {IERC721-balanceOf}."
      },
      "burn(uint256)": {
        "details": "Burns `tokenId`. See {ERC721-_burn}. Requirements: - The caller must own `tokenId` or be an approved operator."
      },
      "getApproved(uint256)": {
        "details": "See {IERC721-getApproved}."
      },
      "isApprovedForAll(address,address)": {
        "details": "See {IERC721-isApprovedForAll}."
      },
      "name()": {
        "details": "See {IERC721Metadata-name}."
      },
      "owner()": {
        "details": "Returns the address of the current owner."
      },
      "ownerOf(uint256)": {
        "details": "See {IERC721-ownerOf}."
      },
      "renounceOwnership()": {
        "details": "Leaves the contract without owner. It will not be possible to call `onlyOwner` functions anymore. Can only be called by the current owner. NOTE: Renouncing ownership will leave the contract without an owner, thereby removing any functionality that is only available to the owner."
      },
      "safeTransferFrom(address,address,uint256)": {
        "details": "See {IERC721-safeTransferFrom}."
      },
      "safeTransferFrom(address,address,uint256,bytes)": {
        "details": "See {IERC721-safeTransferFrom}."
      },
      "setApprovalForAll(address,bool)": {
        "details": "See {IERC721-setApprovalForAll}."
      },
      "supportsInterface(bytes4)": {
        "details": "See {IERC165-supportsInterface}."
      },
      "symbol()": {
        "details": "See {IERC721Metadata-symbol}."
      },
      "tokenURI(uint256)": {
        "details": "See {IERC721Metadata-tokenURI}."
      },
      "transferFrom(address,address,uint256)": {
        "details": "See {IERC721-transferFrom}."
      },
      "transferOwnership(address)": {
        "details": "Transfers ownership of the contract to a new account (`newOwner`). Can only be called by the current owner."
      }
    },
    "version": 1
  },
  "userdoc": {
    "kind": "user",
    "methods": {},
    "notice": "This custom NFT contract stores additional metadata to use for tokenURI",
    "version": 1
  },
  "storageLayout": {
    "storage": [
      {
        "astId": 333,
        "contract": "contracts/ZorbNFT.sol:ZorbNFT",
        "label": "_name",
        "offset": 0,
        "slot": "0",
        "type": "t_string_storage"
      },
      {
        "astId": 335,
        "contract": "contracts/ZorbNFT.sol:ZorbNFT",
        "label": "_symbol",
        "offset": 0,
        "slot": "1",
        "type": "t_string_storage"
      },
      {
        "astId": 339,
        "contract": "contracts/ZorbNFT.sol:ZorbNFT",
        "label": "_owners",
        "offset": 0,
        "slot": "2",
        "type": "t_mapping(t_uint256,t_address)"
      },
      {
        "astId": 343,
        "contract": "contracts/ZorbNFT.sol:ZorbNFT",
        "label": "_balances",
        "offset": 0,
        "slot": "3",
        "type": "t_mapping(t_address,t_uint256)"
      },
      {
        "astId": 347,
        "contract": "contracts/ZorbNFT.sol:ZorbNFT",
        "label": "_tokenApprovals",
        "offset": 0,
        "slot": "4",
        "type": "t_mapping(t_uint256,t_address)"
      },
      {
        "astId": 353,
        "contract": "contracts/ZorbNFT.sol:ZorbNFT",
        "label": "_operatorApprovals",
        "offset": 0,
        "slot": "5",
        "type": "t_mapping(t_address,t_mapping(t_address,t_bool))"
      },
      {
        "astId": 210,
        "contract": "contracts/ZorbNFT.sol:ZorbNFT",
        "label": "_owner",
        "offset": 0,
        "slot": "6",
        "type": "t_address"
      },
      {
        "astId": 4426,
        "contract": "contracts/ZorbNFT.sol:ZorbNFT",
        "label": "knownMarketplace",
        "offset": 0,
        "slot": "7",
        "type": "t_mapping(t_address,t_bool)"
      },
      {
        "astId": 4430,
        "contract": "contracts/ZorbNFT.sol:ZorbNFT",
        "label": "lastOwner",
        "offset": 0,
        "slot": "8",
        "type": "t_mapping(t_uint256,t_address)"
      },
      {
        "astId": 4433,
        "contract": "contracts/ZorbNFT.sol:ZorbNFT",
        "label": "currentTokenId",
        "offset": 0,
        "slot": "9",
        "type": "t_struct(Counter)1654_storage"
      }
    ],
    "types": {
      "t_address": {
        "encoding": "inplace",
        "label": "address",
        "numberOfBytes": "20"
      },
      "t_bool": {
        "encoding": "inplace",
        "label": "bool",
        "numberOfBytes": "1"
      },
      "t_mapping(t_address,t_bool)": {
        "encoding": "mapping",
        "key": "t_address",
        "label": "mapping(address => bool)",
        "numberOfBytes": "32",
        "value": "t_bool"
      },
      "t_mapping(t_address,t_mapping(t_address,t_bool))": {
        "encoding": "mapping",
        "key": "t_address",
        "label": "mapping(address => mapping(address => bool))",
        "numberOfBytes": "32",
        "value": "t_mapping(t_address,t_bool)"
      },
      "t_mapping(t_address,t_uint256)": {
        "encoding": "mapping",
        "key": "t_address",
        "label": "mapping(address => uint256)",
        "numberOfBytes": "32",
        "value": "t_uint256"
      },
      "t_mapping(t_uint256,t_address)": {
        "encoding": "mapping",
        "key": "t_uint256",
        "label": "mapping(uint256 => address)",
        "numberOfBytes": "32",
        "value": "t_address"
      },
      "t_string_storage": {
        "encoding": "bytes",
        "label": "string",
        "numberOfBytes": "32"
      },
      "t_struct(Counter)1654_storage": {
        "encoding": "inplace",
        "label": "struct Counters.Counter",
        "members": [
          {
            "astId": 1653,
            "contract": "contracts/ZorbNFT.sol:ZorbNFT",
            "label": "_value",
            "offset": 0,
            "slot": "0",
            "type": "t_uint256"
          }
        ],
        "numberOfBytes": "32"
      },
      "t_uint256": {
        "encoding": "inplace",
        "label": "uint256",
        "numberOfBytes": "32"
      }
    }
  }
}