{
  "address": "0xd70E10Cff7450BEfC708eDb47E14eA5D47a9186C",
  "abi": [
    {
      "inputs": [
        {
          "internalType": "address",
          "name": "baseFactory",
          "type": "address"
        },
        {
          "internalType": "contract IPublicSharedMetadata",
          "name": "_sharedMetadata",
          "type": "address"
        }
      ],
      "stateMutability": "nonpayable",
      "type": "constructor"
    },
    {
      "stateMutability": "nonpayable",
      "type": "fallback"
    },
    {
      "inputs": [
        {
          "internalType": "address",
          "name": "to",
          "type": "address"
        }
      ],
      "name": "adminMint",
      "outputs": [],
      "stateMutability": "nonpayable",
      "type": "function"
    },
    {
      "inputs": [
        {
          "internalType": "uint256",
          "name": "tokenId",
          "type": "uint256"
        }
      ],
      "name": "burn",
      "outputs": [],
      "stateMutability": "nonpayable",
      "type": "function"
    },
    {
      "inputs": [],
      "name": "implementation",
      "outputs": [
        {
          "internalType": "address",
          "name": "",
          "type": "address"
        }
      ],
      "stateMutability": "view",
      "type": "function"
    },
    {
      "inputs": [],
      "name": "mint",
      "outputs": [],
      "stateMutability": "nonpayable",
      "type": "function"
    },
    {
      "inputs": [],
      "name": "mintIsOpen",
      "outputs": [
        {
          "internalType": "bool",
          "name": "",
          "type": "bool"
        }
      ],
      "stateMutability": "view",
      "type": "function"
    },
    {
      "inputs": [
        {
          "internalType": "uint256",
          "name": "tokenId",
          "type": "uint256"
        }
      ],
      "name": "tokenURI",
      "outputs": [
        {
          "internalType": "string",
          "name": "",
          "type": "string"
        }
      ],
      "stateMutability": "view",
      "type": "function"
    },
    {
      "inputs": [
        {
          "internalType": "address",
          "name": "user",
          "type": "address"
        }
      ],
      "name": "zorbForAddress",
      "outputs": [
        {
          "internalType": "string",
          "name": "",
          "type": "string"
        }
      ],
      "stateMutability": "view",
      "type": "function"
    },
    {
      "stateMutability": "payable",
      "type": "receive"
    }
  ],
  "transactionHash": "0x61e9e5908835f64b976b5376564da0c63aa898bafc48662a7dd3aacdae887da7",
  "args": [
    "0x86c67a16C16BF784BdFE7D4b7575dB664D191F88",
    "0x2a3245d54E5407E276c47f0C181a22bf90c797Ce"
  ],
  "solcInputHash": "e3eee1fab09b81e4de6aee77fbed220b",
  "bytecode": "0x60a06040523480156200001157600080fd5b506040516200272538038062002725833981016040819052620000349162000219565b60408051808201825260058152645a6f72627360d81b6020808301919091528251808401845260048152632d27a92160e11b8183015283516080810185526000808252855180850187528181528285015285519384018652808452948101929092526060820193909352849290620000ac8462000199565b6000846001600160a01b031633858585604051602401620000d19493929190620002b9565b60408051601f198184030181529181526020820180516001600160e01b031663b1a78e3f60e01b1790525162000108919062000358565b600060405180830381855af49150503d806000811462000145576040519150601f19603f3d011682016040523d82523d6000602084013e6200014a565b606091505b50509050806200015957600080fd5b5050505050806001600160a01b03166080816001600160a01b03168152505062000191620186a0620001f460201b620006391760201c565b505062000376565b80620001d37f360894a13ba1a3210667c828492db98dca3e2076cc3735a920a3ca505d382bbc60001b620001fd60201b620006421760201c565b80546001600160a01b0319166001600160a01b039290921691909117905550565b80546001019055565b90565b6001600160a01b03811681146200021657600080fd5b50565b600080604083850312156200022d57600080fd5b82516200023a8162000200565b60208401519092506200024d8162000200565b809150509250929050565b60005b83811015620002755781810151838201526020016200025b565b8381111562000285576000848401525b50505050565b60008151808452620002a581602086016020860162000258565b601f01601f19169290920160200192915050565b6001600160a01b0385168152608060208201819052600090620002df908301866200028b565b8281036040840152620002f381866200028b565b9050828103606084015261ffff84511681526020840151608060208301526200032060808301826200028b565b9050604085015182820360408401526200033b82826200028b565b915050606085015115156060830152809250505095945050505050565b600082516200036c81846020870162000258565b9190910192915050565b60805161238c62000399600039600081816103e20152610550015261238c6000f3fe6080604052600436106100645760003560e01c80631249c58b1461008557806342966c681461009a5780635c60da1b146100ba5780639769dc0e146100ec578063aa1152ab1461010c578063c87b56dd14610131578063de9099421461015e5761006e565b3661006e57600080fd5b34801561007a57600080fd5b5061008361017e565b005b34801561009157600080fd5b506100836101ae565b3480156100a657600080fd5b506100836100b5366004611af2565b610218565b3480156100c657600080fd5b506100cf61026a565b6040516001600160a01b0390911681526020015b60405180910390f35b3480156100f857600080fd5b50610083610107366004611b20565b610298565b34801561011857600080fd5b50610121610374565b60405190151581526020016100e3565b34801561013d57600080fd5b5061015161014c366004611af2565b61039e565b6040516100e39190611b99565b34801561016a57600080fd5b50610151610179366004611b20565b610521565b600061018861026a565b90503660008037600080366000845af43d6000803e8080156101a9573d6000f35b3d6000fd5b6101b6610374565b6101f25760405162461bcd60e51b81526020600482015260086024820152673737ba1037b832b760c11b60448201526064015b60405180910390fd5b61020633610201620186a05490565b610645565b610216620186a080546001019055565b565b61022233826106ae565b61025e5760405162461bcd60e51b815260206004820152600d60248201526c13db9b1e48185c1c1c9bdd9959609a1b60448201526064016101e9565b6102678161073a565b50565b7f360894a13ba1a3210667c828492db98dca3e2076cc3735a920a3ca505d382bbc546001600160a01b031690565b306001600160a01b03166313effa0f6040518163ffffffff1660e01b815260040160206040518083038186803b1580156102d157600080fd5b505afa1580156102e5573d6000803e3d6000fd5b505050506040513d601f19601f820116820180604052508101906103099190611bac565b6001600160a01b0316336001600160a01b0316146103555760405162461bcd60e51b81526020600482015260096024820152682737ba1037bbb732b960b91b60448201526064016101e9565b61036481610201620186a05490565b610267620186a080546001019055565b6000635fee660042118015610399575061039562015180635fee6600611bdf565b4211155b905090565b60606103a98261078e565b6103e05760405162461bcd60e51b81526020600482015260086024820152672737903a37b5b2b760c11b60448201526064016101e9565b7f00000000000000000000000000000000000000000000000000000000000000006001600160a01b031663d01fde8c61041884610800565b6040516331a9108f60e11b81526004810186905261048b903090636352211e9060240160206040518083038186803b15801561045357600080fd5b505afa158015610467573d6000803e3d6000fd5b505050506040513d601f19601f820116820180604052508101906101799190611bac565b60405160200161049c929190611c13565b6040516020818303038152906040526040518263ffffffff1660e01b81526004016104c79190611b99565b60006040518083038186803b1580156104df57600080fd5b505afa1580156104f3573d6000803e3d6000fd5b505050506040513d6000823e601f3d908101601f1916820160405261051b9190810190611da5565b92915050565b6060600061052e83610906565b80516020808301516040808501516060860151608087015192519697506000967f00000000000000000000000000000000000000000000000000000000000000006001600160a01b03169663d5fb1b199661058f9691959194939201611e5d565b6040516020818303038152906040526040518263ffffffff1660e01b81526004016105ba9190611b99565b60006040518083038186803b1580156105d257600080fd5b505afa1580156105e6573d6000803e3d6000fd5b505050506040513d6000823e601f3d908101601f1916820160405261060e9190810190611da5565b90508060405160200161062191906120b8565b60405160208183030381529060405292505050919050565b80546001019055565b90565b30604051633dc8ded760e01b81526001600160a01b038481166004830152602482018490529190911690633dc8ded790604401600060405180830381600087803b15801561069257600080fd5b505af11580156106a6573d6000803e3d6000fd5b505050505050565b60003060405163296cf3bd60e11b81526001600160a01b0385811660048301526024820185905291909116906352d9e77a9060440160206040518083038186803b1580156106fb57600080fd5b505afa15801561070f573d6000803e3d6000fd5b505050506040513d601f19601f8201168201806040525081019061073391906120fd565b9392505050565b60405163068d00a960e51b815260048101829052309063d1a0152090602401600060405180830381600087803b15801561077357600080fd5b505af1158015610787573d6000803e3d6000fd5b5050505050565b604051638553c3e960e01b8152600481018290526000903090638553c3e99060240160206040518083038186803b1580156107c857600080fd5b505afa1580156107dc573d6000803e3d6000fd5b505050506040513d601f19601f8201168201806040525081019061051b91906120fd565b6060816108245750506040805180820190915260018152600360fc1b602082015290565b8160005b811561084e57806108388161211f565b91506108479050600a83612150565b9150610828565b60008167ffffffffffffffff81111561086957610869611d8f565b6040519080825280601f01601f191660200182016040528015610893576020820181803683370190505b5090505b84156108fe576108a8600183612164565b91506108b5600a8661217b565b6108c0906030611bdf565b60f81b8183815181106108d5576108d5611e47565b60200101906001600160f81b031916908160001a9053506108f7600a86612150565b9450610897565b949350505050565b61090e611acb565b6001600160a01b038216600060118260131a601802816109305761093061213a565b0490506000602283601d1a6005028161094b5761094b61213a565b046020019050606160338460171a600502816109695761096961213a565b0401604801600281049050600060108560181a816109895761098961213a565b04605101905060006080866015600b91901a0260ff16816109ac576109ac61213a565b046046019050600a82038111156109c4575060091981015b6040805160a0810190915280610a3e6109f989601c1a60028b60191a816109ed576109ed61213a565b0660ff168a6000610bea565b610a1960028b601c1a81610a0f57610a0f61213a565b0687876064610d3e565b610a3960028c601a1a81610a2f57610a2f61213a565b068a8a6064610d86565b610dfe565b8152602001610aac610a6c89601c1a60028b60191a81610a6057610a6061213a565b0660ff168a600a610bea565b610a8c60028b601c1a81610a8257610a8261213a565b068787605a610d3e565b610a3960028c601a1a81610aa257610aa261213a565b068a8a605a610d86565b8152602001610b1a610ada89601c1a60028b60191a81610ace57610ace61213a565b0660ff168a6046610bea565b610afa60028b601c1a81610af057610af061213a565b0687876046610d3e565b610a3960028c601a1a81610b1057610b1061213a565b068a8a6046610d86565b8152602001610b88610b4889601c1a60028b60191a81610b3c57610b3c61213a565b0660ff168a605a610bea565b610b6860028b601c1a81610b5e57610b5e61213a565b0687876014610d3e565b610a3960028c601a1a81610b7e57610b7e61213a565b068a8a6014610d86565b8152602001610bdc610bb689601c1a60028b60191a81610baa57610baa61213a565b0660ff168a6064610bea565b610bd660028b601c1a81610bcc57610bcc61213a565b0687876000610d3e565b88610dfe565b905298975050505050505050565b600080610bf860048761218f565b60ff1690508381610c6557610c5c8615610c1c57610c1782600a6121b1565b610c27565b610c27600a836121f2565b610c349060ff8716612231565b82610c4360ff881660646121f2565b610c4d9190612231565b610c5791906121b1565b610e45565b925050506108fe565b8160011415610c8d57610c5c8615610c8257610c1782601e6121b1565b610c27601e836121f2565b8160021415610ce857610c5c8615610caf57610caa8260326121b1565b610cba565b610cba6032836121f2565b610cc68660ff16610e73565b610cd09190612231565b82610cdd8760ff16610e73565b610c439060646121f2565b610d3360808860ff1611610cfd576000610d00565b60015b60ff168715610d1057603c610d14565b603b195b610d1e9190612231565b610d2890836121b1565b610cba90601e6121b1565b979650505050505050565b60008060ff8616610d6e57610d5283611369565b60ff1690506064818103860285830201046001019150506108fe565b50816064818103860285830201049695505050505050565b60008060ff8616610da457610d9a83611369565b60ff169050610db3565b610dad836116c5565b60ff1690505b6064610dbf85836122b6565b86610dcb846064612164565b610dd591906122b6565b610ddf9190611bdf565b610de99190612150565b610df4906001611bdf565b9695505050505050565b6060610e0984610800565b610e1284610800565b610e1b84610800565b604051602001610e2d939291906122d5565b60405160208183030381529060405290509392505050565b606490056000808212610e5e57610168825b0692915050565b610168826000190281610e5757610e5761213a565b6000600d8261ffff161015610e8a57506000919050565b60118261ffff161015610e9f57506001919050565b60138261ffff161015610eb457506002919050565b60158261ffff161015610ec957506003919050565b60178261ffff161015610ede57506004919050565b60188261ffff161015610ef357506005919050565b60198261ffff161015610f0857506006919050565b601b8261ffff161015610f1d57506007919050565b601c8261ffff161015610f3257506008919050565b601d8261ffff161015610f4757506009919050565b601e8261ffff161015610f5c5750600a919050565b601f8261ffff161015610f715750600b919050565b60208261ffff161015610f865750600d919050565b60218261ffff161015610f9b5750600e919050565b60228261ffff161015610fb05750600f919050565b60238261ffff161015610fc557506011919050565b60248261ffff161015610fda57506012919050565b60258261ffff161015610fef57506014919050565b60268261ffff16101561100457506015919050565b60278261ffff16101561101957506017919050565b60288261ffff16101561102e57506019919050565b60298261ffff1610156110435750601b919050565b602a8261ffff1610156110585750601d919050565b602b8261ffff16101561106d5750601f919050565b602c8261ffff16101561108257506022919050565b602d8261ffff16101561109757506024919050565b602e8261ffff1610156110ac57506026919050565b602f8261ffff1610156110c157506029919050565b60308261ffff1610156110d65750602c919050565b60318261ffff1610156110eb5750602f919050565b60328261ffff16101561110057506032919050565b60338261ffff16101561111557506034919050565b60348261ffff16101561112a57506037919050565b60358261ffff16101561113f5750603a919050565b60368261ffff1610156111545750603d919050565b60378261ffff1610156111695750603f919050565b60388261ffff16101561117e57506041919050565b60398261ffff16101561119357506044919050565b603a8261ffff1610156111a857506046919050565b603b8261ffff1610156111bd57506048919050565b603c8261ffff1610156111d25750604a919050565b603d8261ffff1610156111e75750604c919050565b603e8261ffff1610156111fc5750604e919050565b603f8261ffff1610156112115750604f919050565b60408261ffff16101561122657506051919050565b60418261ffff16101561123b57506052919050565b60428261ffff16101561125057506054919050565b60438261ffff16101561126557506055919050565b60448261ffff16101561127a57506056919050565b60458261ffff16101561128f57506058919050565b60468261ffff1610156112a457506059919050565b60478261ffff1610156112b95750605a919050565b60488261ffff1610156112ce5750605b919050565b604a8261ffff1610156112e35750605c919050565b604b8261ffff1610156112f85750605d919050565b604c8261ffff16101561130d5750605e919050565b604e8261ffff1610156113225750605f919050565b60508261ffff16101561133757506060919050565b60528261ffff16101561134c57506061919050565b60568261ffff16101561136157506062919050565b506063919050565b6000602782101561137c57506000919050565b602d82101561138d57506001919050565b603182101561139e57506002919050565b60348210156113af57506003919050565b60358210156113c057506004919050565b60368210156113d157506004919050565b60378210156113e257506005919050565b60388210156113f357506005919050565b603982101561140457506006919050565b603a82101561141557506006919050565b603b82101561142657506007919050565b603c82101561143757506007919050565b603d82101561144857506008919050565b603e82101561145957506009919050565b603f82101561146a57506009919050565b604082101561147b5750600a919050565b604182101561148c5750600b919050565b604282101561149d5750600c919050565b60438210156114ae5750600d919050565b60448210156114bf5750600e919050565b60458210156114d05750600f919050565b60468210156114e157506010919050565b60478210156114f257506012919050565b604882101561150357506013919050565b604982101561151457506014919050565b604a82101561152557506016919050565b604b82101561153657506017919050565b604c82101561154757506019919050565b604d8210156115585750601b919050565b604e8210156115695750601c919050565b604f82101561157a5750601e919050565b605082101561158b57506020919050565b605182101561159c57506022919050565b60528210156115ad57506025919050565b60538210156115be57506027919050565b60548210156115cf57506029919050565b60558210156115e05750602c919050565b60568210156115f15750602f919050565b605782101561160257506031919050565b605882101561161357506034919050565b605982101561162457506037919050565b605a8210156116355750603b919050565b605b8210156116465750603e919050565b605c82101561165757506041919050565b605d82101561166857506045919050565b605e82101561167957506049919050565b605f82101561168a5750604d919050565b606082101561169b57506051919050565b60618210156116ac57506055919050565b60628210156116bd5750605a919050565b50605f919050565b600060168210156116d857506000919050565b601c8210156116e957506001919050565b60208210156116fa57506002919050565b602082101561170b57506003919050565b602282101561171c57506003919050565b602482101561172d57506004919050565b602782101561173e57506005919050565b602982101561174f57506006919050565b602b82101561176057506007919050565b602e82101561177157506009919050565b602f8210156117825750600a919050565b60318210156117935750600b919050565b60328210156117a45750600c919050565b60338210156117b55750600d919050565b60358210156117c65750600e919050565b60368210156117d75750600f919050565b60378210156117e857506010919050565b60388210156117f957506011919050565b603982101561180a57506012919050565b603a82101561181b57506013919050565b603b82101561182c57506014919050565b603c82101561183d57506015919050565b603d82101561184e57506016919050565b603e82101561185f57506017919050565b603f82101561187057506019919050565b60408210156118815750601a919050565b60418210156118925750601b919050565b60428210156118a35750601c919050565b60438210156118b45750601e919050565b60448210156118c55750601f919050565b60458210156118d657506020919050565b60468210156118e757506022919050565b60478210156118f857506023919050565b604882101561190957506025919050565b604982101561191a57506026919050565b604a82101561192b57506028919050565b604b82101561193c5750602a919050565b604c82101561194d5750602b919050565b604d82101561195e5750602d919050565b604e82101561196f5750602f919050565b604f82101561198057506031919050565b605082101561199157506033919050565b60518210156119a257506035919050565b60528210156119b357506037919050565b60538210156119c457506039919050565b60548210156119d55750603b919050565b60558210156119e65750603d919050565b60568210156119f75750603f919050565b6057821015611a0857506041919050565b6058821015611a1957506044919050565b6059821015611a2a57506046919050565b605a821015611a3b57506048919050565b605b821015611a4c5750604b919050565b605c821015611a5d5750604d919050565b605d821015611a6e57506050919050565b605e821015611a7f57506053919050565b605f821015611a9057506055919050565b6060821015611aa157506058919050565b6061821015611ab25750605b919050565b6062821015611ac35750605e919050565b506061919050565b6040518060a001604052806005905b6060815260200190600190039081611ada5790505090565b600060208284031215611b0457600080fd5b5035919050565b6001600160a01b038116811461026757600080fd5b600060208284031215611b3257600080fd5b813561073381611b0b565b60005b83811015611b58578181015183820152602001611b40565b83811115611b67576000848401525b50505050565b60008151808452611b85816020860160208601611b3d565b601f01601f19169290920160200192915050565b6020815260006107336020830184611b6d565b600060208284031215611bbe57600080fd5b815161073381611b0b565b634e487b7160e01b600052601160045260246000fd5b60008219821115611bf257611bf2611bc9565b500190565b60008151611c09818560208601611b3d565b9290920192915050565b747b226e616d65223a20225a6f7261205a6f7262202360581b81528251600090611c44816015850160208801611b3d565b7f222c20226465736372697074696f6e223a20225a6f7261205a6f7262204e65776015918401918201526f102cb2b0b93990223937b8101918191960811b60358201527f5c6e5c6e43656c656272617465205a6f7261207769746820796f7572206f776e60458201527f20756e69717565205a6f72625c6e5c6e5b68747470733a2f2f7a6f72622e646560658201527f762f5d287a6f72622e646576295c6e5c6e5768656e205a6f726273206172652060858201527f736f6c64206f72207472616e736665727265642c20746865792075706461746560a58201527f20746f207265666c65637420746865207a6f7262206f6620746865206375727260c58201527632b73a1037bbb732b9171116101134b6b0b3b2911d101160491b60e58201528351611d788160fc840160208801611b3d565b610df460fc8284010161227d60f01b815260020190565b634e487b7160e01b600052604160045260246000fd5b600060208284031215611db757600080fd5b815167ffffffffffffffff80821115611dcf57600080fd5b818401915084601f830112611de357600080fd5b815181811115611df557611df5611d8f565b604051601f8201601f19908116603f01168101908382118183101715611e1d57611e1d611d8f565b81604052828152876020848701011115611e3657600080fd5b610d33836020830160208801611b3d565b634e487b7160e01b600052603260045260246000fd5b7f3c73766720786d6c6e733d22687474703a2f2f7777772e77332e6f72672f323081527f30302f737667222076696577426f783d223020302032303020323030223e3c6460208201527f6566733e3c72616469616c4772616469656e742066783d2236342e393625222060408201527f66793d2232342e333625222069643d2267726164223e3c73746f70206f66667360608201527732ba1e91189a971b1912911039ba37b816b1b7b637b91e9160411b608082015260008651611f28816098850160208b01611b3d565b7f22202f3e3c73746f70206f66667365743d2233392e353825222073746f702d636098918401918201526537b637b91e9160d11b60b882018190528751611f768160be850160208c01611b3d565b7f22202f3e3c73746f70206f66667365743d2237322e393225222073746f702d6360be939091019283015260de8201526120ac61203c612036612000611ffa611fc260e487018c611bf7565b7f22202f3e3c73746f70206f66667365743d2239302e363225222073746f702d6381526537b637b91e9160d11b602082015260260190565b89611bf7565b7f22202f3e3c73746f70206f66667365743d2231303025222073746f702d636f6c81526337b91e9160e11b602082015260240190565b86611bf7565b7f22202f3e3c2f72616469616c4772616469656e743e3c2f646566733e3c63697281527f636c652063783d22353025222063793d223530252220723d223530252220666960208201527736361e913ab9361411b3b930b2149110179f1e17b9bb339f60411b604082015260580190565b98975050505050505050565b7f646174613a696d6167652f7376672b786d6c3b6261736536342c0000000000008152600082516120f081601a850160208701611b3d565b91909101601a0192915050565b60006020828403121561210f57600080fd5b8151801515811461073357600080fd5b600060001982141561213357612133611bc9565b5060010190565b634e487b7160e01b600052601260045260246000fd5b60008261215f5761215f61213a565b500490565b60008282101561217657612176611bc9565b500390565b60008261218a5761218a61213a565b500690565b600060ff8316806121a2576121a261213a565b8060ff84160691505092915050565b600080821280156001600160ff1b03849003851316156121d3576121d3611bc9565b600160ff1b83900384128116156121ec576121ec611bc9565b50500190565b60008083128015600160ff1b85018412161561221057612210611bc9565b6001600160ff1b038401831381161561222b5761222b611bc9565b50500390565b60006001600160ff1b038184138284138082168684048611161561225757612257611bc9565b600160ff1b600087128281168783058912161561227657612276611bc9565b6000871292508782058712848416161561229257612292611bc9565b878505871281841616156122a8576122a8611bc9565b505050929093029392505050565b60008160001904831182151516156122d0576122d0611bc9565b500290565b630d0e6d8560e31b8152600084516122f4816004850160208901611b3d565b61016160f51b6004918401918201528451612316816006840160208901611b3d565b6201296160ed1b60069290910191820152835161233a816009840160208801611b3d565b61252960f01b60099290910191820152600b019594505050505056fea26469706673582212209d4ce126fb089b413fc8b5431d26c925ec4315e4cdd3b7bb0dbfb8beef30484664736f6c63430008090033",
  "devdoc": {
    "kind": "dev",
    "methods": {},
    "version": 1
  },
  "userdoc": {
    "kind": "user",
    "methods": {},
    "notice": "This custom NFT contract stores additional metadata to use for tokenURI",
    "version": 1
  },
  "storageLayout": {
    "storage": [
      {
        "astId": 5122,
        "contract": "contracts/ZorbNFT.sol:ZorbNFT",
        "label": "gap",
        "offset": 0,
        "slot": "0",
        "type": "t_array(t_uint256)100000_storage"
      },
      {
        "astId": 4389,
        "contract": "contracts/ZorbNFT.sol:ZorbNFT",
        "label": "currentTokenId",
        "offset": 0,
        "slot": "100000",
        "type": "t_struct(Counter)1538_storage"
      }
    ],
    "types": {
      "t_array(t_uint256)100000_storage": {
        "base": "t_uint256",
        "encoding": "inplace",
        "label": "uint256[100000]",
        "numberOfBytes": "3200000"
      },
      "t_struct(Counter)1538_storage": {
        "encoding": "inplace",
        "label": "struct CountersUpgradeable.Counter",
        "members": [
          {
            "astId": 1537,
            "contract": "contracts/ZorbNFT.sol:ZorbNFT",
            "label": "_value",
            "offset": 0,
            "slot": "0",
            "type": "t_uint256"
          }
        ],
        "numberOfBytes": "32"
      },
      "t_uint256": {
        "encoding": "inplace",
        "label": "uint256",
        "numberOfBytes": "32"
      }
    }
  }
}