{
  "address": "0xCa21d4228cDCc68D4e23807E5e370C07577Dd152",
  "abi": [
    {
      "inputs": [
        {
          "internalType": "contract IPublicSharedMetadata",
          "name": "_sharedMetadata",
          "type": "address"
        }
      ],
      "stateMutability": "nonpayable",
      "type": "constructor"
    },
    {
      "anonymous": false,
      "inputs": [
        {
          "indexed": true,
          "internalType": "address",
          "name": "owner",
          "type": "address"
        },
        {
          "indexed": true,
          "internalType": "address",
          "name": "approved",
          "type": "address"
        },
        {
          "indexed": true,
          "internalType": "uint256",
          "name": "tokenId",
          "type": "uint256"
        }
      ],
      "name": "Approval",
      "type": "event"
    },
    {
      "anonymous": false,
      "inputs": [
        {
          "indexed": true,
          "internalType": "address",
          "name": "owner",
          "type": "address"
        },
        {
          "indexed": true,
          "internalType": "address",
          "name": "operator",
          "type": "address"
        },
        {
          "indexed": false,
          "internalType": "bool",
          "name": "approved",
          "type": "bool"
        }
      ],
      "name": "ApprovalForAll",
      "type": "event"
    },
    {
      "anonymous": false,
      "inputs": [
        {
          "indexed": true,
          "internalType": "address",
          "name": "previousOwner",
          "type": "address"
        },
        {
          "indexed": true,
          "internalType": "address",
          "name": "newOwner",
          "type": "address"
        }
      ],
      "name": "OwnershipTransferred",
      "type": "event"
    },
    {
      "anonymous": false,
      "inputs": [
        {
          "indexed": true,
          "internalType": "address",
          "name": "from",
          "type": "address"
        },
        {
          "indexed": true,
          "internalType": "address",
          "name": "to",
          "type": "address"
        },
        {
          "indexed": true,
          "internalType": "uint256",
          "name": "tokenId",
          "type": "uint256"
        }
      ],
      "name": "Transfer",
      "type": "event"
    },
    {
      "inputs": [
        {
          "internalType": "address[]",
          "name": "to",
          "type": "address[]"
        }
      ],
      "name": "airdrop",
      "outputs": [],
      "stateMutability": "nonpayable",
      "type": "function"
    },
    {
      "inputs": [
        {
          "internalType": "address",
          "name": "to",
          "type": "address"
        },
        {
          "internalType": "uint256",
          "name": "tokenId",
          "type": "uint256"
        }
      ],
      "name": "approve",
      "outputs": [],
      "stateMutability": "nonpayable",
      "type": "function"
    },
    {
      "inputs": [
        {
          "internalType": "address",
          "name": "owner",
          "type": "address"
        }
      ],
      "name": "balanceOf",
      "outputs": [
        {
          "internalType": "uint256",
          "name": "",
          "type": "uint256"
        }
      ],
      "stateMutability": "view",
      "type": "function"
    },
    {
      "inputs": [
        {
          "internalType": "uint256",
          "name": "tokenId",
          "type": "uint256"
        }
      ],
      "name": "getApproved",
      "outputs": [
        {
          "internalType": "address",
          "name": "",
          "type": "address"
        }
      ],
      "stateMutability": "view",
      "type": "function"
    },
    {
      "inputs": [
        {
          "internalType": "uint256",
          "name": "tokenId",
          "type": "uint256"
        }
      ],
      "name": "getZorbRenderAddress",
      "outputs": [
        {
          "internalType": "address",
          "name": "",
          "type": "address"
        }
      ],
      "stateMutability": "view",
      "type": "function"
    },
    {
      "inputs": [
        {
          "internalType": "address",
          "name": "user",
          "type": "address"
        }
      ],
      "name": "gradientForAddress",
      "outputs": [
        {
          "internalType": "bytes[5]",
          "name": "",
          "type": "bytes[5]"
        }
      ],
      "stateMutability": "pure",
      "type": "function"
    },
    {
      "inputs": [
        {
          "internalType": "address",
          "name": "owner",
          "type": "address"
        },
        {
          "internalType": "address",
          "name": "operator",
          "type": "address"
        }
      ],
      "name": "isApprovedForAll",
      "outputs": [
        {
          "internalType": "bool",
          "name": "",
          "type": "bool"
        }
      ],
      "stateMutability": "view",
      "type": "function"
    },
    {
      "inputs": [],
      "name": "mint",
      "outputs": [],
      "stateMutability": "nonpayable",
      "type": "function"
    },
    {
      "inputs": [],
      "name": "mintIsOpen",
      "outputs": [
        {
          "internalType": "bool",
          "name": "",
          "type": "bool"
        }
      ],
      "stateMutability": "view",
      "type": "function"
    },
    {
      "inputs": [],
      "name": "name",
      "outputs": [
        {
          "internalType": "string",
          "name": "",
          "type": "string"
        }
      ],
      "stateMutability": "view",
      "type": "function"
    },
    {
      "inputs": [],
      "name": "owner",
      "outputs": [
        {
          "internalType": "address",
          "name": "",
          "type": "address"
        }
      ],
      "stateMutability": "view",
      "type": "function"
    },
    {
      "inputs": [
        {
          "internalType": "uint256",
          "name": "tokenId",
          "type": "uint256"
        }
      ],
      "name": "ownerOf",
      "outputs": [
        {
          "internalType": "address",
          "name": "",
          "type": "address"
        }
      ],
      "stateMutability": "view",
      "type": "function"
    },
    {
      "inputs": [],
      "name": "renounceOwnership",
      "outputs": [],
      "stateMutability": "nonpayable",
      "type": "function"
    },
    {
      "inputs": [
        {
          "internalType": "address",
          "name": "from",
          "type": "address"
        },
        {
          "internalType": "address",
          "name": "to",
          "type": "address"
        },
        {
          "internalType": "uint256",
          "name": "tokenId",
          "type": "uint256"
        }
      ],
      "name": "safeTransferFrom",
      "outputs": [],
      "stateMutability": "nonpayable",
      "type": "function"
    },
    {
      "inputs": [
        {
          "internalType": "address",
          "name": "from",
          "type": "address"
        },
        {
          "internalType": "address",
          "name": "to",
          "type": "address"
        },
        {
          "internalType": "uint256",
          "name": "tokenId",
          "type": "uint256"
        },
        {
          "internalType": "bytes",
          "name": "_data",
          "type": "bytes"
        }
      ],
      "name": "safeTransferFrom",
      "outputs": [],
      "stateMutability": "nonpayable",
      "type": "function"
    },
    {
      "inputs": [
        {
          "internalType": "address",
          "name": "operator",
          "type": "address"
        },
        {
          "internalType": "bool",
          "name": "approved",
          "type": "bool"
        }
      ],
      "name": "setApprovalForAll",
      "outputs": [],
      "stateMutability": "nonpayable",
      "type": "function"
    },
    {
      "inputs": [
        {
          "internalType": "address[]",
          "name": "marketPlaces",
          "type": "address[]"
        },
        {
          "internalType": "bool",
          "name": "isKnown",
          "type": "bool"
        }
      ],
      "name": "setKnownMarketplaces",
      "outputs": [],
      "stateMutability": "nonpayable",
      "type": "function"
    },
    {
      "inputs": [
        {
          "internalType": "bytes4",
          "name": "interfaceId",
          "type": "bytes4"
        }
      ],
      "name": "supportsInterface",
      "outputs": [
        {
          "internalType": "bool",
          "name": "",
          "type": "bool"
        }
      ],
      "stateMutability": "view",
      "type": "function"
    },
    {
      "inputs": [],
      "name": "symbol",
      "outputs": [
        {
          "internalType": "string",
          "name": "",
          "type": "string"
        }
      ],
      "stateMutability": "view",
      "type": "function"
    },
    {
      "inputs": [
        {
          "internalType": "uint256",
          "name": "tokenId",
          "type": "uint256"
        }
      ],
      "name": "tokenURI",
      "outputs": [
        {
          "internalType": "string",
          "name": "",
          "type": "string"
        }
      ],
      "stateMutability": "view",
      "type": "function"
    },
    {
      "inputs": [],
      "name": "totalSupply",
      "outputs": [
        {
          "internalType": "uint256",
          "name": "",
          "type": "uint256"
        }
      ],
      "stateMutability": "view",
      "type": "function"
    },
    {
      "inputs": [
        {
          "internalType": "address",
          "name": "from",
          "type": "address"
        },
        {
          "internalType": "address",
          "name": "to",
          "type": "address"
        },
        {
          "internalType": "uint256",
          "name": "tokenId",
          "type": "uint256"
        }
      ],
      "name": "transferFrom",
      "outputs": [],
      "stateMutability": "nonpayable",
      "type": "function"
    },
    {
      "inputs": [
        {
          "internalType": "address",
          "name": "newOwner",
          "type": "address"
        }
      ],
      "name": "transferOwnership",
      "outputs": [],
      "stateMutability": "nonpayable",
      "type": "function"
    },
    {
      "inputs": [
        {
          "internalType": "address",
          "name": "user",
          "type": "address"
        }
      ],
      "name": "zorbForAddress",
      "outputs": [
        {
          "internalType": "string",
          "name": "",
          "type": "string"
        }
      ],
      "stateMutability": "view",
      "type": "function"
    }
  ],
  "transactionHash": "0x2e92740eb04ec26da283280148815e77d473da97f3dbaaa1e043be7d38702675",
  "args": [
    "0x7eB947242dbF042e6388C329A614165d73548670"
  ],
  "solcInputHash": "a1ea4888ae9a051d19590a99dc0d7aac",
  "bytecode": "0x60a06040523480156200001157600080fd5b5060405162003974380380620039748339810160408190526200003491620001e1565b60408051808201825260058152645a6f72627360d81b6020808301918252835180850190945260048452632d27a92160e11b9084015281519192916200007d916000916200013b565b508051620000939060019060208401906200013b565b505050620000b0620000aa620000dc60201b60201c565b620000e0565b6001600160a01b038116608052620000d5600962000132602090811b62000dac17901c565b5062000250565b3390565b600680546001600160a01b038381166001600160a01b0319831681179093556040519116919082907f8be0079c531659141344cd1fd0a4f28419497f9722a3daafe3b4186f6b6457e090600090a35050565b80546001019055565b828054620001499062000213565b90600052602060002090601f0160209004810192826200016d5760008555620001b8565b82601f106200018857805160ff1916838001178555620001b8565b82800160010185558215620001b8579182015b82811115620001b85782518255916020019190600101906200019b565b50620001c6929150620001ca565b5090565b5b80821115620001c65760008155600101620001cb565b600060208284031215620001f457600080fd5b81516001600160a01b03811681146200020c57600080fd5b9392505050565b600181811c908216806200022857607f821691505b602082108114156200024a57634e487b7160e01b600052602260045260246000fd5b50919050565b6080516136fa6200027a60003960008181610a6c01528181610af60152610bfa01526136fa6000f3fe608060405234801561001057600080fd5b50600436106101585760003560e01c8063715018a6116100c3578063aa1152ab1161007c578063aa1152ab146102d1578063b88d4fde146102d9578063c87b56dd146102ec578063de909942146102ff578063e985e9c514610312578063f2fde38b1461032557600080fd5b8063715018a614610277578063729ad39e1461027f5780638da5cb5b1461029257806391557ac4146102a357806395d89b41146102b6578063a22cb465146102be57600080fd5b806318160ddd1161011557806318160ddd1461020257806323b872dd1461021857806342842e0e1461022b5780636352211e1461023e5780636411fb451461025157806370a082311461026457600080fd5b806301ffc9a71461015d57806303ff85ff1461018557806306fdde03146101a5578063081812fc146101ba578063095ea7b3146101e55780631249c58b146101fa575b600080fd5b61017061016b3660046127a1565b610338565b60405190151581526020015b60405180910390f35b6101986101933660046127d3565b61038a565b60405161017c9190612848565b6101ad61039b565b60405161017c9190612895565b6101cd6101c83660046128a8565b61042d565b6040516001600160a01b03909116815260200161017c565b6101f86101f33660046128c1565b6104ba565b005b6101f86105cb565b61020a610611565b60405190815260200161017c565b6101f86102263660046128ed565b61062d565b6101f86102393660046128ed565b61065e565b6101cd61024c3660046128a8565b610679565b6101f861025f36600461293e565b6106f0565b61020a6102723660046127d3565b610791565b6101f8610818565b6101f861028d366004612a07565b61084c565b6006546001600160a01b03166101cd565b6101cd6102b13660046128a8565b6108c6565b6101ad61099d565b6101f86102cc366004612ab8565b6109ac565b6101706109b7565b6101f86102e7366004612b14565b6109e0565b6101ad6102fa3660046128a8565b610a12565b6101ad61030d3660046127d3565b610bcb565b610170610320366004612bc2565b610ce3565b6101f86103333660046127d3565b610d11565b60006001600160e01b031982166380ac58cd60e01b148061036957506001600160e01b03198216635b5e139f60e01b145b8061038457506301ffc9a760e01b6001600160e01b03198316145b92915050565b610392612764565b61038482610db5565b6060600080546103aa90612bfb565b80601f01602080910402602001604051908101604052809291908181526020018280546103d690612bfb565b80156104235780601f106103f857610100808354040283529160200191610423565b820191906000526020600020905b81548152906001019060200180831161040657829003601f168201915b5050505050905090565b600061043882611099565b61049e5760405162461bcd60e51b815260206004820152602c60248201527f4552433732313a20617070726f76656420717565727920666f72206e6f6e657860448201526b34b9ba32b73a103a37b5b2b760a11b60648201526084015b60405180910390fd5b506000908152600460205260409020546001600160a01b031690565b60006104c582610679565b9050806001600160a01b0316836001600160a01b031614156105335760405162461bcd60e51b815260206004820152602160248201527f4552433732313a20617070726f76616c20746f2063757272656e74206f776e656044820152603960f91b6064820152608401610495565b336001600160a01b038216148061054f575061054f8133610ce3565b6105bc5760405162461bcd60e51b815260206004820152603860248201527f4552433732313a20617070726f76652063616c6c6572206973206e6f74206f776044820152771b995c881b9bdc88185c1c1c9bdd995908199bdc88185b1b60421b6064820152608401610495565b6105c683836110b6565b505050565b6105d36109b7565b6105ef5760405162461bcd60e51b815260040161049590612c36565b610601336105fc60095490565b611124565b61060f600980546001019055565b565b6000600161061e60095490565b6106289190612c73565b905090565b6106373382611263565b6106535760405162461bcd60e51b815260040161049590612c8a565b6105c683838361132d565b6105c6838383604051806020016040528060008152506109e0565b6000818152600260205260408120546001600160a01b0316806103845760405162461bcd60e51b815260206004820152602960248201527f4552433732313a206f776e657220717565727920666f72206e6f6e657869737460448201526832b73a103a37b5b2b760b91b6064820152608401610495565b6006546001600160a01b0316331461071a5760405162461bcd60e51b815260040161049590612cdb565b60005b8281101561078b57816007600086868581811061073c5761073c612d10565b905060200201602081019061075191906127d3565b6001600160a01b031681526020810191909152604001600020805460ff19169115159190911790558061078381612d26565b91505061071d565b50505050565b60006001600160a01b0382166107fc5760405162461bcd60e51b815260206004820152602a60248201527f4552433732313a2062616c616e636520717565727920666f7220746865207a65604482015269726f206164647265737360b01b6064820152608401610495565b506001600160a01b031660009081526003602052604090205490565b6006546001600160a01b031633146108425760405162461bcd60e51b815260040161049590612cdb565b61060f60006114d8565b6108546109b7565b6108705760405162461bcd60e51b815260040161049590612c36565b60005b81518110156108c2576108a282828151811061089157610891612d10565b60200260200101516105fc60095490565b6108b0600980546001019055565b806108ba81612d26565b915050610873565b5050565b6040516331a9108f60e11b81526004810182905260009081903090636352211e9060240160206040518083038186803b15801561090257600080fd5b505afa158015610916573d6000803e3d6000fd5b505050506040513d601f19601f8201168201806040525081019061093a9190612d41565b6001600160a01b03811660009081526007602052604090205490915060ff16801561097b57506000838152600860205260409020546001600160a01b031615155b156103845750506000908152600860205260409020546001600160a01b031690565b6060600180546103aa90612bfb565b6108c233838361152a565b60006361cfdfd04211801561062857506109d862024ea06361cfdfd0612d5e565b421115905090565b6109ea3383611263565b610a065760405162461bcd60e51b815260040161049590612c8a565b61078b848484846115f5565b6060610a1d82611099565b610a545760405162461bcd60e51b81526020600482015260086024820152672737903a37b5b2b760c11b6044820152606401610495565b60405162b86e3360e51b8152600481018390526000907f00000000000000000000000000000000000000000000000000000000000000006001600160a01b03169063170dc6609060240160006040518083038186803b158015610ab657600080fd5b505afa158015610aca573d6000803e3d6000fd5b505050506040513d6000823e601f3d908101601f19168201604052610af29190810190612d76565b90507f00000000000000000000000000000000000000000000000000000000000000006001600160a01b031663d01fde8c828384610b3261030d896108c6565b604051602001610b459493929190612e08565b6040516020818303038152906040526040518263ffffffff1660e01b8152600401610b709190612895565b60006040518083038186803b158015610b8857600080fd5b505afa158015610b9c573d6000803e3d6000fd5b505050506040513d6000823e601f3d908101601f19168201604052610bc49190810190612d76565b9392505050565b60606000610bd88361038a565b80516020808301516040808501516060860151608087015192519697506000967f00000000000000000000000000000000000000000000000000000000000000006001600160a01b03169663d5fb1b1996610c399691959194939201612fbb565b6040516020818303038152906040526040518263ffffffff1660e01b8152600401610c649190612895565b60006040518083038186803b158015610c7c57600080fd5b505afa158015610c90573d6000803e3d6000fd5b505050506040513d6000823e601f3d908101601f19168201604052610cb89190810190612d76565b905080604051602001610ccb91906133d8565b60405160208183030381529060405292505050919050565b6001600160a01b03918216600090815260056020908152604080832093909416825291909152205460ff1690565b6006546001600160a01b03163314610d3b5760405162461bcd60e51b815260040161049590612cdb565b6001600160a01b038116610da05760405162461bcd60e51b815260206004820152602660248201527f4f776e61626c653a206e6577206f776e657220697320746865207a65726f206160448201526564647265737360d01b6064820152608401610495565b610da9816114d8565b50565b80546001019055565b610dbd612764565b6001600160a01b038216600060118260131a60180281610ddf57610ddf61341d565b0490506000602283601d1a60050281610dfa57610dfa61341d565b046020019050606160338460171a60050281610e1857610e1861341d565b0401604801600281049050600060108560181a81610e3857610e3861341d565b04605101905060006080866015600b91901a0260ff1681610e5b57610e5b61341d565b046046019050600a8203811115610e73575060091981015b6040805160a0810190915280610eed610ea889601c1a60028b60191a81610e9c57610e9c61341d565b0660ff168a6000611628565b610ec860028b601c1a81610ebe57610ebe61341d565b068787606461177c565b610ee860028c601a1a81610ede57610ede61341d565b068a8a60646117c4565b61183c565b8152602001610f5b610f1b89601c1a60028b60191a81610f0f57610f0f61341d565b0660ff168a600a611628565b610f3b60028b601c1a81610f3157610f3161341d565b068787605a61177c565b610ee860028c601a1a81610f5157610f5161341d565b068a8a605a6117c4565b8152602001610fc9610f8989601c1a60028b60191a81610f7d57610f7d61341d565b0660ff168a6046611628565b610fa960028b601c1a81610f9f57610f9f61341d565b068787604661177c565b610ee860028c601a1a81610fbf57610fbf61341d565b068a8a60466117c4565b8152602001611037610ff789601c1a60028b60191a81610feb57610feb61341d565b0660ff168a605a611628565b61101760028b601c1a8161100d5761100d61341d565b068787601461177c565b610ee860028c601a1a8161102d5761102d61341d565b068a8a60146117c4565b815260200161108b61106589601c1a60028b60191a816110595761105961341d565b0660ff168a6064611628565b61108560028b601c1a8161107b5761107b61341d565b068787600061177c565b8861183c565b905298975050505050505050565b6000908152600260205260409020546001600160a01b0316151590565b600081815260046020526040902080546001600160a01b0319166001600160a01b03841690811790915581906110eb82610679565b6001600160a01b03167f8c5be1e5ebec7d5bd14f71427d1e84f3dd0314c0f7b2291e5b200ac8c7c3b92560405160405180910390a45050565b6001600160a01b03821661117a5760405162461bcd60e51b815260206004820181905260248201527f4552433732313a206d696e7420746f20746865207a65726f20616464726573736044820152606401610495565b61118381611099565b156111d05760405162461bcd60e51b815260206004820152601c60248201527f4552433732313a20746f6b656e20616c7265616479206d696e746564000000006044820152606401610495565b6111dc60008383611883565b6001600160a01b0382166000908152600360205260408120805460019290611205908490612d5e565b909155505060008181526002602052604080822080546001600160a01b0319166001600160a01b03861690811790915590518392907fddf252ad1be2c89b69c2b068fc378daa952ba7f163c4a11628f55a4df523b3ef908290a45050565b600061126e82611099565b6112cf5760405162461bcd60e51b815260206004820152602c60248201527f4552433732313a206f70657261746f7220717565727920666f72206e6f6e657860448201526b34b9ba32b73a103a37b5b2b760a11b6064820152608401610495565b60006112da83610679565b9050806001600160a01b0316846001600160a01b031614806113155750836001600160a01b031661130a8461042d565b6001600160a01b0316145b8061132557506113258185610ce3565b949350505050565b826001600160a01b031661134082610679565b6001600160a01b0316146113a85760405162461bcd60e51b815260206004820152602960248201527f4552433732313a207472616e73666572206f6620746f6b656e2074686174206960448201526839903737ba1037bbb760b91b6064820152608401610495565b6001600160a01b03821661140a5760405162461bcd60e51b8152602060048201526024808201527f4552433732313a207472616e7366657220746f20746865207a65726f206164646044820152637265737360e01b6064820152608401610495565b611415838383611883565b6114206000826110b6565b6001600160a01b0383166000908152600360205260408120805460019290611449908490612c73565b90915550506001600160a01b0382166000908152600360205260408120805460019290611477908490612d5e565b909155505060008181526002602052604080822080546001600160a01b0319166001600160a01b0386811691821790925591518493918716917fddf252ad1be2c89b69c2b068fc378daa952ba7f163c4a11628f55a4df523b3ef91a4505050565b600680546001600160a01b038381166001600160a01b0319831681179093556040519116919082907f8be0079c531659141344cd1fd0a4f28419497f9722a3daafe3b4186f6b6457e090600090a35050565b816001600160a01b0316836001600160a01b031614156115885760405162461bcd60e51b815260206004820152601960248201527822a9219b99189d1030b8383937bb32903a379031b0b63632b960391b6044820152606401610495565b6001600160a01b03838116600081815260056020908152604080832094871680845294825291829020805460ff191686151590811790915591519182527f17307eab39ab6107e8899845ad3d59bd9653f200f220920489ca2b5937696c31910160405180910390a3505050565b61160084848461132d565b61160c848484846118d2565b61078b5760405162461bcd60e51b815260040161049590613433565b600080611636600487613485565b60ff16905083816116a35761169a861561165a5761165582600a6134a7565b611665565b611665600a836134e8565b6116729060ff8716613527565b8261168160ff881660646134e8565b61168b9190613527565b61169591906134a7565b6119dc565b92505050611325565b81600114156116cb5761169a86156116c05761165582601e6134a7565b611665601e836134e8565b81600214156117265761169a86156116ed576116e88260326134a7565b6116f8565b6116f86032836134e8565b6117048660ff16611a0f565b61170e9190613527565b8261171b8760ff16611a0f565b6116819060646134e8565b61177160808860ff161161173b57600061173e565b60015b60ff16871561174e57603c611752565b603b195b61175c9190613527565b61176690836134a7565b6116f890601e6134a7565b979650505050505050565b60008060ff86166117ac5761179083611f05565b60ff169050606481810386028583020104600101915050611325565b50816064818103860285830201049695505050505050565b60008060ff86166117e2576117d883611f05565b60ff1690506117f1565b6117eb83612261565b60ff1690505b60646117fd85836135ac565b86611809846064612c73565b61181391906135ac565b61181d9190612d5e565b61182791906135cb565b611832906001612d5e565b9695505050505050565b606061184784612667565b61185084612667565b61185984612667565b60405160200161186b939291906135df565b60405160208183030381529060405290509392505050565b6001600160a01b03821660009081526007602052604090205460ff16156105c657600081815260086020526040902080546001600160a01b0385166001600160a01b0319909116179055505050565b60006001600160a01b0384163b156119d457604051630a85bd0160e11b81526001600160a01b0385169063150b7a0290611916903390899088908890600401613660565b602060405180830381600087803b15801561193057600080fd5b505af1925050508015611960575060408051601f3d908101601f1916820190925261195d91810190613693565b60015b6119ba573d80801561198e576040519150601f19603f3d011682016040523d82523d6000602084013e611993565b606091505b5080516119b25760405162461bcd60e51b815260040161049590613433565b805181602001fd5b6001600160e01b031916630a85bd0160e11b149050611325565b506001611325565b6064900560008082126119f557610168825b0692915050565b6101688260001902816119ee576119ee61341d565b919050565b6000600d8261ffff161015611a2657506000919050565b60118261ffff161015611a3b57506001919050565b60138261ffff161015611a5057506002919050565b60158261ffff161015611a6557506003919050565b60178261ffff161015611a7a57506004919050565b60188261ffff161015611a8f57506005919050565b60198261ffff161015611aa457506006919050565b601b8261ffff161015611ab957506007919050565b601c8261ffff161015611ace57506008919050565b601d8261ffff161015611ae357506009919050565b601e8261ffff161015611af85750600a919050565b601f8261ffff161015611b0d5750600b919050565b60208261ffff161015611b225750600d919050565b60218261ffff161015611b375750600e919050565b60228261ffff161015611b4c5750600f919050565b60238261ffff161015611b6157506011919050565b60248261ffff161015611b7657506012919050565b60258261ffff161015611b8b57506014919050565b60268261ffff161015611ba057506015919050565b60278261ffff161015611bb557506017919050565b60288261ffff161015611bca57506019919050565b60298261ffff161015611bdf5750601b919050565b602a8261ffff161015611bf45750601d919050565b602b8261ffff161015611c095750601f919050565b602c8261ffff161015611c1e57506022919050565b602d8261ffff161015611c3357506024919050565b602e8261ffff161015611c4857506026919050565b602f8261ffff161015611c5d57506029919050565b60308261ffff161015611c725750602c919050565b60318261ffff161015611c875750602f919050565b60328261ffff161015611c9c57506032919050565b60338261ffff161015611cb157506034919050565b60348261ffff161015611cc657506037919050565b60358261ffff161015611cdb5750603a919050565b60368261ffff161015611cf05750603d919050565b60378261ffff161015611d055750603f919050565b60388261ffff161015611d1a57506041919050565b60398261ffff161015611d2f57506044919050565b603a8261ffff161015611d4457506046919050565b603b8261ffff161015611d5957506048919050565b603c8261ffff161015611d6e5750604a919050565b603d8261ffff161015611d835750604c919050565b603e8261ffff161015611d985750604e919050565b603f8261ffff161015611dad5750604f919050565b60408261ffff161015611dc257506051919050565b60418261ffff161015611dd757506052919050565b60428261ffff161015611dec57506054919050565b60438261ffff161015611e0157506055919050565b60448261ffff161015611e1657506056919050565b60458261ffff161015611e2b57506058919050565b60468261ffff161015611e4057506059919050565b60478261ffff161015611e555750605a919050565b60488261ffff161015611e6a5750605b919050565b604a8261ffff161015611e7f5750605c919050565b604b8261ffff161015611e945750605d919050565b604c8261ffff161015611ea95750605e919050565b604e8261ffff161015611ebe5750605f919050565b60508261ffff161015611ed357506060919050565b60528261ffff161015611ee857506061919050565b60568261ffff161015611efd57506062919050565b506063919050565b60006027821015611f1857506000919050565b602d821015611f2957506001919050565b6031821015611f3a57506002919050565b6034821015611f4b57506003919050565b6035821015611f5c57506004919050565b6036821015611f6d57506004919050565b6037821015611f7e57506005919050565b6038821015611f8f57506005919050565b6039821015611fa057506006919050565b603a821015611fb157506006919050565b603b821015611fc257506007919050565b603c821015611fd357506007919050565b603d821015611fe457506008919050565b603e821015611ff557506009919050565b603f82101561200657506009919050565b60408210156120175750600a919050565b60418210156120285750600b919050565b60428210156120395750600c919050565b604382101561204a5750600d919050565b604482101561205b5750600e919050565b604582101561206c5750600f919050565b604682101561207d57506010919050565b604782101561208e57506012919050565b604882101561209f57506013919050565b60498210156120b057506014919050565b604a8210156120c157506016919050565b604b8210156120d257506017919050565b604c8210156120e357506019919050565b604d8210156120f45750601b919050565b604e8210156121055750601c919050565b604f8210156121165750601e919050565b605082101561212757506020919050565b605182101561213857506022919050565b605282101561214957506025919050565b605382101561215a57506027919050565b605482101561216b57506029919050565b605582101561217c5750602c919050565b605682101561218d5750602f919050565b605782101561219e57506031919050565b60588210156121af57506034919050565b60598210156121c057506037919050565b605a8210156121d15750603b919050565b605b8210156121e25750603e919050565b605c8210156121f357506041919050565b605d82101561220457506045919050565b605e82101561221557506049919050565b605f8210156122265750604d919050565b606082101561223757506051919050565b606182101561224857506055919050565b60628210156122595750605a919050565b50605f919050565b6000601682101561227457506000919050565b601c82101561228557506001919050565b602082101561229657506002919050565b60208210156122a757506003919050565b60228210156122b857506003919050565b60248210156122c957506004919050565b60278210156122da57506005919050565b60298210156122eb57506006919050565b602b8210156122fc57506007919050565b602e82101561230d57506009919050565b602f82101561231e5750600a919050565b603182101561232f5750600b919050565b60328210156123405750600c919050565b60338210156123515750600d919050565b60358210156123625750600e919050565b60368210156123735750600f919050565b603782101561238457506010919050565b603882101561239557506011919050565b60398210156123a657506012919050565b603a8210156123b757506013919050565b603b8210156123c857506014919050565b603c8210156123d957506015919050565b603d8210156123ea57506016919050565b603e8210156123fb57506017919050565b603f82101561240c57506019919050565b604082101561241d5750601a919050565b604182101561242e5750601b919050565b604282101561243f5750601c919050565b60438210156124505750601e919050565b60448210156124615750601f919050565b604582101561247257506020919050565b604682101561248357506022919050565b604782101561249457506023919050565b60488210156124a557506025919050565b60498210156124b657506026919050565b604a8210156124c757506028919050565b604b8210156124d85750602a919050565b604c8210156124e95750602b919050565b604d8210156124fa5750602d919050565b604e82101561250b5750602f919050565b604f82101561251c57506031919050565b605082101561252d57506033919050565b605182101561253e57506035919050565b605282101561254f57506037919050565b605382101561256057506039919050565b60548210156125715750603b919050565b60558210156125825750603d919050565b60568210156125935750603f919050565b60578210156125a457506041919050565b60588210156125b557506044919050565b60598210156125c657506046919050565b605a8210156125d757506048919050565b605b8210156125e85750604b919050565b605c8210156125f95750604d919050565b605d82101561260a57506050919050565b605e82101561261b57506053919050565b605f82101561262c57506055919050565b606082101561263d57506058919050565b606182101561264e5750605b919050565b606282101561265f5750605e919050565b506061919050565b60608161268b5750506040805180820190915260018152600360fc1b602082015290565b8160005b81156126b5578061269f81612d26565b91506126ae9050600a836135cb565b915061268f565b6000816001600160401b038111156126cf576126cf6129c1565b6040519080825280601f01601f1916602001820160405280156126f9576020820181803683370190505b5090505b84156113255761270e600183612c73565b915061271b600a866136b0565b612726906030612d5e565b60f81b81838151811061273b5761273b612d10565b60200101906001600160f81b031916908160001a90535061275d600a866135cb565b94506126fd565b6040518060a001604052806005905b60608152602001906001900390816127735790505090565b6001600160e01b031981168114610da957600080fd5b6000602082840312156127b357600080fd5b8135610bc48161278b565b6001600160a01b0381168114610da957600080fd5b6000602082840312156127e557600080fd5b8135610bc4816127be565b60005b8381101561280b5781810151838201526020016127f3565b8381111561078b5750506000910152565b600081518084526128348160208601602086016127f0565b601f01601f19169290920160200192915050565b602080825260009060c0830183820185845b600581101561288957601f1987850301835261287784835161281c565b9350918401919084019060010161285a565b50919695505050505050565b602081526000610bc4602083018461281c565b6000602082840312156128ba57600080fd5b5035919050565b600080604083850312156128d457600080fd5b82356128df816127be565b946020939093013593505050565b60008060006060848603121561290257600080fd5b833561290d816127be565b9250602084013561291d816127be565b929592945050506040919091013590565b80358015158114611a0a57600080fd5b60008060006040848603121561295357600080fd5b83356001600160401b038082111561296a57600080fd5b818601915086601f83011261297e57600080fd5b81358181111561298d57600080fd5b8760208260051b85010111156129a257600080fd5b6020928301955093506129b8918601905061292e565b90509250925092565b634e487b7160e01b600052604160045260246000fd5b604051601f8201601f191681016001600160401b03811182821017156129ff576129ff6129c1565b604052919050565b60006020808385031215612a1a57600080fd5b82356001600160401b0380821115612a3157600080fd5b818501915085601f830112612a4557600080fd5b813581811115612a5757612a576129c1565b8060051b9150612a688483016129d7565b8181529183018401918481019088841115612a8257600080fd5b938501935b83851015612aac5784359250612a9c836127be565b8282529385019390850190612a87565b98975050505050505050565b60008060408385031215612acb57600080fd5b8235612ad6816127be565b9150612ae46020840161292e565b90509250929050565b60006001600160401b03821115612b0657612b066129c1565b50601f01601f191660200190565b60008060008060808587031215612b2a57600080fd5b8435612b35816127be565b93506020850135612b45816127be565b92506040850135915060608501356001600160401b03811115612b6757600080fd5b8501601f81018713612b7857600080fd5b8035612b8b612b8682612aed565b6129d7565b818152886020838501011115612ba057600080fd5b8160208401602083013760006020838301015280935050505092959194509250565b60008060408385031215612bd557600080fd5b8235612be0816127be565b91506020830135612bf0816127be565b809150509250929050565b600181811c90821680612c0f57607f821691505b60208210811415612c3057634e487b7160e01b600052602260045260246000fd5b50919050565b6020808252600d908201526c26b4b73a103737ba1037b832b760991b604082015260600190565b634e487b7160e01b600052601160045260246000fd5b600082821015612c8557612c85612c5d565b500390565b60208082526031908201527f4552433732313a207472616e736665722063616c6c6572206973206e6f74206f6040820152701ddb995c881b9bdc88185c1c1c9bdd9959607a1b606082015260800190565b6020808252818101527f4f776e61626c653a2063616c6c6572206973206e6f7420746865206f776e6572604082015260600190565b634e487b7160e01b600052603260045260246000fd5b6000600019821415612d3a57612d3a612c5d565b5060010190565b600060208284031215612d5357600080fd5b8151610bc4816127be565b60008219821115612d7157612d71612c5d565b500190565b600060208284031215612d8857600080fd5b81516001600160401b03811115612d9e57600080fd5b8201601f81018413612daf57600080fd5b8051612dbd612b8682612aed565b818152856020838501011115612dd257600080fd5b612de38260208301602086016127f0565b95945050505050565b60008151612dfe8185602086016127f0565b9290920192915050565b6f7b226e616d65223a20225a6f7262202360801b81528451600090612e34816010850160208a016127f0565b7f222c20226465736372697074696f6e223a20225a6f72627320776572652064696010918401918201527f73747269627574656420666f722066726565206279205a4f5241206f6e204e6560308201527f772059656172e280997320323032322e2045616368204e465420696d6275657360508201527f207468652070726f70657274696573206f66206974732077616c6c657420686f60708201527f6c6465722c20616e64207768656e2073656e7420746f20736f6d656f6e65206560908201527f6c73652c2077696c6c207472616e73666f726d2e5c6e5c6e566965772074686960b08201527673204e4654206174205b7a6f72622e6465762f6e66742f60481b60d08201528551612f4f8160e7840160208a016127f0565b612aac612fad612fa7612f8d612f8760e786880101765d2868747470733a2f2f7a6f72622e6465762f6e66742f60481b815260170190565b8a612dec565b6d149116101134b6b0b3b2911d101160911b8152600e0190565b87612dec565b61227d60f01b815260020190565b7f3c73766720786d6c6e733d22687474703a2f2f7777772e77332e6f72672f323081527f30302f737667222076696577426f783d223020302031313020313130223e3c6460208201527f6566733e3c72616469616c4772616469656e742069643d22677a72222067726160408201527f6469656e745472616e73666f726d3d227472616e736c6174652836362e34353760608201527f382032342e3335373529207363616c652837352e32393038292220677261646960808201527f656e74556e6974733d227573657253706163654f6e5573652220723d2231222060a08201527f63783d2230222063793d223025223e3c73746f70206f66667365743d2231352e60c0820152701b1912911039ba37b816b1b7b637b91e9160791b60e0820152600086516130f18160f1850160208b016127f0565b612aac6132086132026131cc6131c661318e61318861315061314a60f18a8d01017f22202f3e3c73746f70206f66667365743d2233392e353825222073746f702d6381526537b637b91e9160d11b602082015260260190565b8f612dec565b7f22202f3e3c73746f70206f66667365743d2237322e393225222073746f702d6381526537b637b91e9160d11b602082015260260190565b8c612dec565b7f22202f3e3c73746f70206f66667365743d2239302e363325222073746f702d6381526537b637b91e9160d11b602082015260260190565b89612dec565b7f22202f3e3c73746f70206f66667365743d2231303025222073746f702d636f6c81526337b91e9160e11b602082015260240190565b86612dec565b7f22202f3e3c2f72616469616c4772616469656e743e3c2f646566733e3c67207481527f72616e73666f726d3d227472616e736c61746528352c3529223e3c706174682060208201527f643d224d313030203530433130302032322e333835382037372e36313432203060408201527f20353020304332322e33383538203020302032322e333835382030203530433060608201527f2037372e363134322032322e3338353820313030203530203130304337372e3660808201527f31343220313030203130302037372e36313432203130302035305a222066696c60a08201527f6c3d2275726c2823677a722922202f3e3c70617468207374726f6b653d22726760c08201527f626128302c302c302c302e30373529222066696c6c3d227472616e737061726560e08201527f6e7422207374726f6b652d77696474683d22312220643d224d35302c302e35636101008201527f32372e332c302c34392e352c32322e322c34392e352c34392e355337372e332c6101208201527f39392e352c35302c39392e3553302e352c37372e332c302e352c35305332322e6101408201527f372c302e352c35302c302e357a22202f3e3c2f673e3c2f7376673e000000000061016082015261017b0190565b7f646174613a696d6167652f7376672b786d6c3b6261736536342c00000000000081526000825161341081601a8501602087016127f0565b91909101601a0192915050565b634e487b7160e01b600052601260045260246000fd5b60208082526032908201527f4552433732313a207472616e7366657220746f206e6f6e20455243373231526560408201527131b2b4bb32b91034b6b83632b6b2b73a32b960711b606082015260800190565b600060ff8316806134985761349861341d565b8060ff84160691505092915050565b600080821280156001600160ff1b03849003851316156134c9576134c9612c5d565b600160ff1b83900384128116156134e2576134e2612c5d565b50500190565b60008083128015600160ff1b85018412161561350657613506612c5d565b6001600160ff1b038401831381161561352157613521612c5d565b50500390565b60006001600160ff1b038184138284138082168684048611161561354d5761354d612c5d565b600160ff1b600087128281168783058912161561356c5761356c612c5d565b6000871292508782058712848416161561358857613588612c5d565b8785058712818416161561359e5761359e612c5d565b505050929093029392505050565b60008160001904831182151516156135c6576135c6612c5d565b500290565b6000826135da576135da61341d565b500490565b630d0e6d8560e31b8152600084516135fe8160048501602089016127f0565b61016160f51b60049184019182015284516136208160068401602089016127f0565b6201296160ed1b6006929091019182015283516136448160098401602088016127f0565b61252960f01b60099290910191820152600b0195945050505050565b6001600160a01b03858116825284166020820152604081018390526080606082018190526000906118329083018461281c565b6000602082840312156136a557600080fd5b8151610bc48161278b565b6000826136bf576136bf61341d565b50069056fea2646970667358221220ccffb94409adb96a7b7fbc564c285818edbfe3a32305d9b022600f6d36c9fb6264736f6c63430008090033",
  "devdoc": {
    "kind": "dev",
    "methods": {
      "airdrop(address[])": {
        "params": {
          "to": "list of addresses to airdrop to"
        }
      },
      "approve(address,uint256)": {
        "details": "See {IERC721-approve}."
      },
      "balanceOf(address)": {
        "details": "See {IERC721-balanceOf}."
      },
      "constructor": {
        "params": {
          "_sharedMetadata": "linked metadata contract"
        }
      },
      "getApproved(uint256)": {
        "details": "See {IERC721-getApproved}."
      },
      "getZorbRenderAddress(uint256)": {
        "params": {
          "tokenId": "id of token to get render address for"
        }
      },
      "isApprovedForAll(address,address)": {
        "details": "See {IERC721-isApprovedForAll}."
      },
      "name()": {
        "details": "See {IERC721Metadata-name}."
      },
      "owner()": {
        "details": "Returns the address of the current owner."
      },
      "ownerOf(uint256)": {
        "details": "See {IERC721-ownerOf}."
      },
      "renounceOwnership()": {
        "details": "Leaves the contract without owner. It will not be possible to call `onlyOwner` functions anymore. Can only be called by the current owner. NOTE: Renouncing ownership will leave the contract without an owner, thereby removing any functionality that is only available to the owner."
      },
      "safeTransferFrom(address,address,uint256)": {
        "details": "See {IERC721-safeTransferFrom}."
      },
      "safeTransferFrom(address,address,uint256,bytes)": {
        "details": "See {IERC721-safeTransferFrom}."
      },
      "setApprovalForAll(address,bool)": {
        "details": "See {IERC721-setApprovalForAll}."
      },
      "setKnownMarketplaces(address[],bool)": {
        "params": {
          "isKnown": "flag if the above marketplaces are known",
          "marketPlaces": "list of addresses"
        }
      },
      "supportsInterface(bytes4)": {
        "details": "See {IERC165-supportsInterface}."
      },
      "symbol()": {
        "details": "See {IERC721Metadata-symbol}."
      },
      "tokenURI(uint256)": {
        "params": {
          "tokenId": "token id to render"
        }
      },
      "transferFrom(address,address,uint256)": {
        "details": "See {IERC721-transferFrom}."
      },
      "transferOwnership(address)": {
        "details": "Transfers ownership of the contract to a new account (`newOwner`). Can only be called by the current owner."
      },
      "zorbForAddress(address)": {
        "params": {
          "user": "address to get Zorb SVG for"
        }
      }
    },
    "version": 1
  },
  "userdoc": {
    "kind": "user",
    "methods": {
      "airdrop(address[])": {
        "notice": "Public airdrop of tokens to _other_ addresses"
      },
      "constructor": {
        "notice": "Make the Zorb contract"
      },
      "getZorbRenderAddress(uint256)": {
        "notice": "Determines the actual rendering address instead of just owner address for given zorb id"
      },
      "mint()": {
        "notice": "Simple public mint function"
      },
      "mintIsOpen()": {
        "notice": "Informational function returning if the mint is currently ongoing"
      },
      "setKnownMarketplaces(address[],bool)": {
        "notice": "Set known marketplace contracts"
      },
      "tokenURI(uint256)": {
        "notice": "TokenURI function returning on-chain encoded SVG for each Zorb"
      },
      "totalSupply()": {
        "notice": "Number of minted tokens."
      },
      "zorbForAddress(address)": {
        "notice": "Public getter for getting the given Zorb for an address"
      }
    },
    "notice": "ZorbNFT Design and Project: tw: lily___digital Solidity: tw: isiain ZORA LABS",
    "version": 1
  },
  "storageLayout": {
    "storage": [
      {
        "astId": 333,
        "contract": "contracts/ZorbNFT.sol:ZorbNFT",
        "label": "_name",
        "offset": 0,
        "slot": "0",
        "type": "t_string_storage"
      },
      {
        "astId": 335,
        "contract": "contracts/ZorbNFT.sol:ZorbNFT",
        "label": "_symbol",
        "offset": 0,
        "slot": "1",
        "type": "t_string_storage"
      },
      {
        "astId": 339,
        "contract": "contracts/ZorbNFT.sol:ZorbNFT",
        "label": "_owners",
        "offset": 0,
        "slot": "2",
        "type": "t_mapping(t_uint256,t_address)"
      },
      {
        "astId": 343,
        "contract": "contracts/ZorbNFT.sol:ZorbNFT",
        "label": "_balances",
        "offset": 0,
        "slot": "3",
        "type": "t_mapping(t_address,t_uint256)"
      },
      {
        "astId": 347,
        "contract": "contracts/ZorbNFT.sol:ZorbNFT",
        "label": "_tokenApprovals",
        "offset": 0,
        "slot": "4",
        "type": "t_mapping(t_uint256,t_address)"
      },
      {
        "astId": 353,
        "contract": "contracts/ZorbNFT.sol:ZorbNFT",
        "label": "_operatorApprovals",
        "offset": 0,
        "slot": "5",
        "type": "t_mapping(t_address,t_mapping(t_address,t_bool))"
      },
      {
        "astId": 210,
        "contract": "contracts/ZorbNFT.sol:ZorbNFT",
        "label": "_owner",
        "offset": 0,
        "slot": "6",
        "type": "t_address"
      },
      {
        "astId": 4405,
        "contract": "contracts/ZorbNFT.sol:ZorbNFT",
        "label": "knownMarketplace",
        "offset": 0,
        "slot": "7",
        "type": "t_mapping(t_address,t_bool)"
      },
      {
        "astId": 4410,
        "contract": "contracts/ZorbNFT.sol:ZorbNFT",
        "label": "lastOwner",
        "offset": 0,
        "slot": "8",
        "type": "t_mapping(t_uint256,t_address)"
      },
      {
        "astId": 4414,
        "contract": "contracts/ZorbNFT.sol:ZorbNFT",
        "label": "currentTokenId",
        "offset": 0,
        "slot": "9",
        "type": "t_struct(Counter)1624_storage"
      }
    ],
    "types": {
      "t_address": {
        "encoding": "inplace",
        "label": "address",
        "numberOfBytes": "20"
      },
      "t_bool": {
        "encoding": "inplace",
        "label": "bool",
        "numberOfBytes": "1"
      },
      "t_mapping(t_address,t_bool)": {
        "encoding": "mapping",
        "key": "t_address",
        "label": "mapping(address => bool)",
        "numberOfBytes": "32",
        "value": "t_bool"
      },
      "t_mapping(t_address,t_mapping(t_address,t_bool))": {
        "encoding": "mapping",
        "key": "t_address",
        "label": "mapping(address => mapping(address => bool))",
        "numberOfBytes": "32",
        "value": "t_mapping(t_address,t_bool)"
      },
      "t_mapping(t_address,t_uint256)": {
        "encoding": "mapping",
        "key": "t_address",
        "label": "mapping(address => uint256)",
        "numberOfBytes": "32",
        "value": "t_uint256"
      },
      "t_mapping(t_uint256,t_address)": {
        "encoding": "mapping",
        "key": "t_uint256",
        "label": "mapping(uint256 => address)",
        "numberOfBytes": "32",
        "value": "t_address"
      },
      "t_string_storage": {
        "encoding": "bytes",
        "label": "string",
        "numberOfBytes": "32"
      },
      "t_struct(Counter)1624_storage": {
        "encoding": "inplace",
        "label": "struct Counters.Counter",
        "members": [
          {
            "astId": 1623,
            "contract": "contracts/ZorbNFT.sol:ZorbNFT",
            "label": "_value",
            "offset": 0,
            "slot": "0",
            "type": "t_uint256"
          }
        ],
        "numberOfBytes": "32"
      },
      "t_uint256": {
        "encoding": "inplace",
        "label": "uint256",
        "numberOfBytes": "32"
      }
    }
  }
}