{
  "address": "0x49595B0670Cc74e3205F1D32DFF9cDF3599e0a2B",
  "abi": [
    {
      "inputs": [
        {
          "internalType": "contract ZorbNFT",
          "name": "_zorb",
          "type": "address"
        },
        {
          "internalType": "contract IPublicSharedMetadata",
          "name": "_metadataUtils",
          "type": "address"
        }
      ],
      "stateMutability": "payable",
      "type": "constructor"
    },
    {
      "anonymous": false,
      "inputs": [
        {
          "indexed": true,
          "internalType": "address",
          "name": "owner",
          "type": "address"
        },
        {
          "indexed": true,
          "internalType": "address",
          "name": "spender",
          "type": "address"
        },
        {
          "indexed": true,
          "internalType": "uint256",
          "name": "id",
          "type": "uint256"
        }
      ],
      "name": "Approval",
      "type": "event"
    },
    {
      "anonymous": false,
      "inputs": [
        {
          "indexed": true,
          "internalType": "address",
          "name": "owner",
          "type": "address"
        },
        {
          "indexed": true,
          "internalType": "address",
          "name": "operator",
          "type": "address"
        },
        {
          "indexed": false,
          "internalType": "bool",
          "name": "approved",
          "type": "bool"
        }
      ],
      "name": "ApprovalForAll",
      "type": "event"
    },
    {
      "anonymous": false,
      "inputs": [
        {
          "indexed": true,
          "internalType": "address",
          "name": "actor",
          "type": "address"
        },
        {
          "indexed": true,
          "internalType": "uint256",
          "name": "tokenId",
          "type": "uint256"
        }
      ],
      "name": "Frozen",
      "type": "event"
    },
    {
      "anonymous": false,
      "inputs": [
        {
          "indexed": true,
          "internalType": "address",
          "name": "from",
          "type": "address"
        },
        {
          "indexed": true,
          "internalType": "address",
          "name": "to",
          "type": "address"
        },
        {
          "indexed": true,
          "internalType": "uint256",
          "name": "id",
          "type": "uint256"
        }
      ],
      "name": "Transfer",
      "type": "event"
    },
    {
      "anonymous": false,
      "inputs": [
        {
          "indexed": true,
          "internalType": "address",
          "name": "actor",
          "type": "address"
        },
        {
          "indexed": true,
          "internalType": "uint256",
          "name": "tokenId",
          "type": "uint256"
        }
      ],
      "name": "Unfrozen",
      "type": "event"
    },
    {
      "inputs": [
        {
          "internalType": "address",
          "name": "spender",
          "type": "address"
        },
        {
          "internalType": "uint256",
          "name": "id",
          "type": "uint256"
        }
      ],
      "name": "approve",
      "outputs": [],
      "stateMutability": "nonpayable",
      "type": "function"
    },
    {
      "inputs": [
        {
          "internalType": "address",
          "name": "",
          "type": "address"
        }
      ],
      "name": "balanceOf",
      "outputs": [
        {
          "internalType": "uint256",
          "name": "",
          "type": "uint256"
        }
      ],
      "stateMutability": "view",
      "type": "function"
    },
    {
      "inputs": [
        {
          "internalType": "uint256",
          "name": "tokenId",
          "type": "uint256"
        }
      ],
      "name": "freeze",
      "outputs": [],
      "stateMutability": "nonpayable",
      "type": "function"
    },
    {
      "inputs": [
        {
          "internalType": "uint256",
          "name": "",
          "type": "uint256"
        }
      ],
      "name": "getApproved",
      "outputs": [
        {
          "internalType": "address",
          "name": "",
          "type": "address"
        }
      ],
      "stateMutability": "view",
      "type": "function"
    },
    {
      "inputs": [
        {
          "internalType": "address",
          "name": "",
          "type": "address"
        },
        {
          "internalType": "address",
          "name": "",
          "type": "address"
        }
      ],
      "name": "isApprovedForAll",
      "outputs": [
        {
          "internalType": "bool",
          "name": "",
          "type": "bool"
        }
      ],
      "stateMutability": "view",
      "type": "function"
    },
    {
      "inputs": [],
      "name": "name",
      "outputs": [
        {
          "internalType": "string",
          "name": "",
          "type": "string"
        }
      ],
      "stateMutability": "view",
      "type": "function"
    },
    {
      "inputs": [
        {
          "internalType": "address",
          "name": "",
          "type": "address"
        },
        {
          "internalType": "address",
          "name": "",
          "type": "address"
        },
        {
          "internalType": "uint256",
          "name": "",
          "type": "uint256"
        },
        {
          "internalType": "bytes",
          "name": "",
          "type": "bytes"
        }
      ],
      "name": "onERC721Received",
      "outputs": [
        {
          "internalType": "bytes4",
          "name": "",
          "type": "bytes4"
        }
      ],
      "stateMutability": "view",
      "type": "function"
    },
    {
      "inputs": [
        {
          "internalType": "uint256",
          "name": "",
          "type": "uint256"
        }
      ],
      "name": "ownerOf",
      "outputs": [
        {
          "internalType": "address",
          "name": "",
          "type": "address"
        }
      ],
      "stateMutability": "view",
      "type": "function"
    },
    {
      "inputs": [
        {
          "internalType": "address",
          "name": "from",
          "type": "address"
        },
        {
          "internalType": "address",
          "name": "to",
          "type": "address"
        },
        {
          "internalType": "uint256",
          "name": "id",
          "type": "uint256"
        }
      ],
      "name": "safeTransferFrom",
      "outputs": [],
      "stateMutability": "nonpayable",
      "type": "function"
    },
    {
      "inputs": [
        {
          "internalType": "address",
          "name": "from",
          "type": "address"
        },
        {
          "internalType": "address",
          "name": "to",
          "type": "address"
        },
        {
          "internalType": "uint256",
          "name": "id",
          "type": "uint256"
        },
        {
          "internalType": "bytes",
          "name": "data",
          "type": "bytes"
        }
      ],
      "name": "safeTransferFrom",
      "outputs": [],
      "stateMutability": "nonpayable",
      "type": "function"
    },
    {
      "inputs": [
        {
          "internalType": "address",
          "name": "operator",
          "type": "address"
        },
        {
          "internalType": "bool",
          "name": "approved",
          "type": "bool"
        }
      ],
      "name": "setApprovalForAll",
      "outputs": [],
      "stateMutability": "nonpayable",
      "type": "function"
    },
    {
      "inputs": [
        {
          "internalType": "bytes4",
          "name": "interfaceId",
          "type": "bytes4"
        }
      ],
      "name": "supportsInterface",
      "outputs": [
        {
          "internalType": "bool",
          "name": "",
          "type": "bool"
        }
      ],
      "stateMutability": "pure",
      "type": "function"
    },
    {
      "inputs": [],
      "name": "symbol",
      "outputs": [
        {
          "internalType": "string",
          "name": "",
          "type": "string"
        }
      ],
      "stateMutability": "view",
      "type": "function"
    },
    {
      "inputs": [
        {
          "internalType": "uint256",
          "name": "id",
          "type": "uint256"
        }
      ],
      "name": "tokenURI",
      "outputs": [
        {
          "internalType": "string",
          "name": "",
          "type": "string"
        }
      ],
      "stateMutability": "view",
      "type": "function"
    },
    {
      "inputs": [
        {
          "internalType": "address",
          "name": "from",
          "type": "address"
        },
        {
          "internalType": "address",
          "name": "to",
          "type": "address"
        },
        {
          "internalType": "uint256",
          "name": "id",
          "type": "uint256"
        }
      ],
      "name": "transferFrom",
      "outputs": [],
      "stateMutability": "nonpayable",
      "type": "function"
    },
    {
      "inputs": [
        {
          "internalType": "uint256",
          "name": "tokenId",
          "type": "uint256"
        }
      ],
      "name": "unfreeze",
      "outputs": [],
      "stateMutability": "nonpayable",
      "type": "function"
    },
    {
      "inputs": [],
      "name": "zorb",
      "outputs": [
        {
          "internalType": "contract ZorbNFT",
          "name": "",
          "type": "address"
        }
      ],
      "stateMutability": "view",
      "type": "function"
    }
  ],
  "transactionHash": "0xa49b11be37486c1e29b3c4aa8384f3a501bbb564580c9fd357081a232f9d4c83",
  "args": [
    "0xBD1489658219fe8393E43FC874c0c5ca5e5FCe2C",
    "0x2a3245d54E5407E276c47f0C181a22bf90c797Ce"
  ],
  "solcInputHash": "12b6c3502f4cf9675c386bf07184dc3d",
  "bytecode": "0x60c0604052604051620018bf380380620018bf833981016040819052620000269162000167565b604080518082018252600c81526b46726f7a656e205a6f72627360a01b602080830191825283518085019094526005845264232d27a92160d91b9084015281519192916200007791600091620000a8565b5080516200008d906001906020840190620000a8565b5050506001600160a01b039182166080521660a052620001e3565b828054620000b690620001a6565b90600052602060002090601f016020900481019282620000da576000855562000125565b82601f10620000f557805160ff191683800117855562000125565b8280016001018555821562000125579182015b828111156200012557825182559160200191906001019062000108565b506200013392915062000137565b5090565b5b8082111562000133576000815560010162000138565b6001600160a01b03811681146200016457600080fd5b50565b600080604083850312156200017b57600080fd5b825162000188816200014e565b60208401519092506200019b816200014e565b809150509250929050565b600181811c90821680620001bb57607f821691505b60208210811415620001dd57634e487b7160e01b600052602260045260246000fd5b50919050565b60805160a05161168c62000233600039600081816109d90152610a5b0152600081816101da0152818161049f015281816107fe01528181610a8d01528181610abc0152610cba015261168c6000f3fe608060405234801561001057600080fd5b50600436106100eb5760003560e01c80636352211e116100925780636352211e146101fc5780636623fc461461022557806370a082311461023857806395d89b4114610266578063a22cb4651461026e578063b88d4fde14610281578063c87b56dd14610294578063d7a78db8146102a7578063e985e9c5146102ba57600080fd5b806301ffc9a7146100f057806306fdde0314610118578063081812fc1461012d578063095ea7b31461016e578063150b7a021461018357806323b872dd146101af57806342842e0e146101c257806355bff54b146101d5575b600080fd5b6101036100fe366004610e9c565b6102e8565b60405190151581526020015b60405180910390f35b61012061033a565b60405161010f9190610f11565b61015661013b366004610f24565b6004602052600090815260409020546001600160a01b031681565b6040516001600160a01b03909116815260200161010f565b61018161017c366004610f52565b6103c8565b005b610196610191366004610f7e565b610492565b6040516001600160e01b0319909116815260200161010f565b6101816101bd36600461101d565b61050b565b6101816101d036600461101d565b61067b565b6101567f000000000000000000000000000000000000000000000000000000000000000081565b61015661020a366004610f24565b6003602052600090815260409020546001600160a01b031681565b610181610233366004610f24565b61075f565b61025861024636600461105e565b60026020526000908152604090205481565b60405190815260200161010f565b61012061086c565b61018161027c36600461107b565b610879565b61018161028f366004611128565b6108e5565b6101206102a2366004610f24565b6109b6565b6101816102b5366004610f24565b610c6c565b6101036102c83660046111d7565b600560209081526000928352604080842090915290825290205460ff1681565b60006301ffc9a760e01b6001600160e01b03198316148061031957506380ac58cd60e01b6001600160e01b03198316145b806103345750635b5e139f60e01b6001600160e01b03198316145b92915050565b6000805461034790611205565b80601f016020809104026020016040519081016040528092919081815260200182805461037390611205565b80156103c05780601f10610395576101008083540402835291602001916103c0565b820191906000526020600020905b8154815290600101906020018083116103a357829003601f168201915b505050505081565b6000818152600360205260409020546001600160a01b03163381148061041157506001600160a01b038116600090815260056020908152604080832033845290915290205460ff165b6104365760405162461bcd60e51b815260040161042d90611240565b60405180910390fd5b60008281526004602052604080822080546001600160a01b0319166001600160a01b0387811691821790925591518593918516917f8c5be1e5ebec7d5bd14f71427d1e84f3dd0314c0f7b2291e5b200ac8c7c3b92591a4505050565b6000336001600160a01b037f000000000000000000000000000000000000000000000000000000000000000016146104f95760405162461bcd60e51b815260206004820152600a6024820152693737ba1030903d37b93160b11b604482015260640161042d565b50630a85bd0160e11b95945050505050565b6000818152600360205260409020546001600160a01b038481169116146105615760405162461bcd60e51b815260206004820152600a60248201526957524f4e475f46524f4d60b01b604482015260640161042d565b6001600160a01b0382166105875760405162461bcd60e51b815260040161042d90611268565b336001600160a01b03841614806105b457506000818152600460205260409020546001600160a01b031633145b806105e257506001600160a01b038316600090815260056020908152604080832033845290915290205460ff165b6105fe5760405162461bcd60e51b815260040161042d90611240565b6001600160a01b0380841660008181526002602090815260408083208054600019019055938616808352848320805460010190558583526003825284832080546001600160a01b031990811683179091556004909252848320805490921690915592518493929160008051602061163783398151915291a4505050565b61068683838361050b565b6001600160a01b0382163b158061073e5750604051630a85bd0160e11b8082523360048301526001600160a01b03858116602484015260448301849052608060648401526000608484015290919084169063150b7a029060a401602060405180830381600087803b1580156106fa57600080fd5b505af115801561070e573d6000803e3d6000fd5b505050506040513d601f19601f820116820180604052508101906107329190611293565b6001600160e01b031916145b61075a5760405162461bcd60e51b815260040161042d906112b0565b505050565b6000818152600360205260409020546001600160a01b031633146107b15760405162461bcd60e51b81526020600482015260096024820152683737ba1037bbb732b960b91b604482015260640161042d565b6107ba81610cf3565b604051819033907f07d647ad688e085159820c1d8d030e5765cdc5274d4ee4065c6066b388a2ef5990600090a36040516323b872dd60e01b81526001600160a01b037f000000000000000000000000000000000000000000000000000000000000000016906323b872dd90610837903090339086906004016112da565b600060405180830381600087803b15801561085157600080fd5b505af1158015610865573d6000803e3d6000fd5b5050505050565b6001805461034790611205565b3360008181526005602090815260408083206001600160a01b03871680855290835292819020805460ff191686151590811790915590519081529192917f17307eab39ab6107e8899845ad3d59bd9653f200f220920489ca2b5937696c31910160405180910390a35050565b6108f084848461050b565b6001600160a01b0383163b15806109945750604051630a85bd0160e11b808252906001600160a01b0385169063150b7a02906109369033908990889088906004016112fe565b602060405180830381600087803b15801561095057600080fd5b505af1158015610964573d6000803e3d6000fd5b505050506040513d601f19601f820116820180604052508101906109889190611293565b6001600160e01b031916145b6109b05760405162461bcd60e51b815260040161042d906112b0565b50505050565b60405162b86e3360e51b8152600481018290526060906000906001600160a01b037f0000000000000000000000000000000000000000000000000000000000000000169063170dc6609060240160006040518083038186803b158015610a1b57600080fd5b505afa158015610a2f573d6000803e3d6000fd5b505050506040513d6000823e601f3d908101601f19168201604052610a57919081019061133b565b90507f00000000000000000000000000000000000000000000000000000000000000006001600160a01b031663d01fde8c8283847f00000000000000000000000000000000000000000000000000000000000000006001600160a01b031663de9099427f00000000000000000000000000000000000000000000000000000000000000006001600160a01b03166391557ac48b6040518263ffffffff1660e01b8152600401610b0891815260200190565b60206040518083038186803b158015610b2057600080fd5b505afa158015610b34573d6000803e3d6000fd5b505050506040513d601f19601f82011682018060405250810190610b5891906113b2565b6040516001600160e01b031960e084901b1681526001600160a01b03909116600482015260240160006040518083038186803b158015610b9757600080fd5b505afa158015610bab573d6000803e3d6000fd5b505050506040513d6000823e601f3d908101601f19168201604052610bd3919081019061133b565b604051602001610be694939291906113eb565b6040516020818303038152906040526040518263ffffffff1660e01b8152600401610c119190610f11565b60006040518083038186803b158015610c2957600080fd5b505afa158015610c3d573d6000803e3d6000fd5b505050506040513d6000823e601f3d908101601f19168201604052610c65919081019061133b565b9392505050565b610c763382610dae565b604051819033907f68e0d8c112165d0949ce87205b719ed7d98c7401866c34a159f7c67c6f5620e790600090a36040516323b872dd60e01b81526001600160a01b037f000000000000000000000000000000000000000000000000000000000000000016906323b872dd90610837903390309086906004016112da565b6000818152600360205260409020546001600160a01b031680610d455760405162461bcd60e51b815260206004820152600a6024820152691393d517d3525395115160b21b604482015260640161042d565b6001600160a01b038116600081815260026020908152604080832080546000190190558583526003825280832080546001600160a01b03199081169091556004909252808320805490921690915551849290600080516020611637833981519152908390a45050565b6001600160a01b038216610dd45760405162461bcd60e51b815260040161042d90611268565b6000818152600360205260409020546001600160a01b031615610e2a5760405162461bcd60e51b815260206004820152600e60248201526d1053149150511657d3525395115160921b604482015260640161042d565b6001600160a01b038216600081815260026020908152604080832080546001019055848352600390915280822080546001600160a01b031916841790555183929190600080516020611637833981519152908290a45050565b6001600160e01b031981168114610e9957600080fd5b50565b600060208284031215610eae57600080fd5b8135610c6581610e83565b60005b83811015610ed4578181015183820152602001610ebc565b838111156109b05750506000910152565b60008151808452610efd816020860160208601610eb9565b601f01601f19169290920160200192915050565b602081526000610c656020830184610ee5565b600060208284031215610f3657600080fd5b5035919050565b6001600160a01b0381168114610e9957600080fd5b60008060408385031215610f6557600080fd5b8235610f7081610f3d565b946020939093013593505050565b600080600080600060808688031215610f9657600080fd5b8535610fa181610f3d565b94506020860135610fb181610f3d565b935060408601359250606086013567ffffffffffffffff80821115610fd557600080fd5b818801915088601f830112610fe957600080fd5b813581811115610ff857600080fd5b89602082850101111561100a57600080fd5b9699959850939650602001949392505050565b60008060006060848603121561103257600080fd5b833561103d81610f3d565b9250602084013561104d81610f3d565b929592945050506040919091013590565b60006020828403121561107057600080fd5b8135610c6581610f3d565b6000806040838503121561108e57600080fd5b823561109981610f3d565b9150602083013580151581146110ae57600080fd5b809150509250929050565b634e487b7160e01b600052604160045260246000fd5b604051601f8201601f1916810167ffffffffffffffff811182821017156110f8576110f86110b9565b604052919050565b600067ffffffffffffffff82111561111a5761111a6110b9565b50601f01601f191660200190565b6000806000806080858703121561113e57600080fd5b843561114981610f3d565b9350602085013561115981610f3d565b925060408501359150606085013567ffffffffffffffff81111561117c57600080fd5b8501601f8101871361118d57600080fd5b80356111a061119b82611100565b6110cf565b8181528860208385010111156111b557600080fd5b8160208401602083013760006020838301015280935050505092959194509250565b600080604083850312156111ea57600080fd5b82356111f581610f3d565b915060208301356110ae81610f3d565b600181811c9082168061121957607f821691505b6020821081141561123a57634e487b7160e01b600052602260045260246000fd5b50919050565b6020808252600e908201526d1393d517d055551213d49256915160921b604082015260600190565b6020808252601190820152701253959053125117d49150d25412515395607a1b604082015260600190565b6000602082840312156112a557600080fd5b8151610c6581610e83565b60208082526010908201526f155394d0519157d49150d2541251539560821b604082015260600190565b6001600160a01b039384168152919092166020820152604081019190915260600190565b6001600160a01b038581168252841660208201526040810183905260806060820181905260009061133190830184610ee5565b9695505050505050565b60006020828403121561134d57600080fd5b815167ffffffffffffffff81111561136457600080fd5b8201601f8101841361137557600080fd5b805161138361119b82611100565b81815285602083850101111561139857600080fd5b6113a9826020830160208601610eb9565b95945050505050565b6000602082840312156113c457600080fd5b8151610c6581610f3d565b600081516113e1818560208601610eb9565b9290920192915050565b767b226e616d65223a202246726f7a656e205a6f7262202360481b8152845160009061141e816017850160208a01610eb9565b7f222c20226465736372697074696f6e223a20225468697320697320612066726f6017918401918201527f7a656e2076657273696f6e206f662061205a6f72622e205a6f7262732077657260378201527f6520646973747269627574656420666f722066726565206279205a4f5241206f60578201527f6e204e65772059656172e280997320323032322e204e6f726d616c205a6f726260778201527f73207472616e73666f726d207768656e2073656e7420746f20736f6d656f6e6560978201527f2c2046726f7a656e205a6f726273206b6565702074686569722061707065617260b78201527f616e6365206173207468657920617265207472616465642e20546865206f776e60d78201527f6572206f66207468652066726f7a656e205a6f72622063616e20756e6672656560f78201527f7a6520746865206f726967696e616c207a6f726220617420616e792074696d656101178201527f2e5c6e5c6e5669657720746865206f726967696e616c205a6f7262206174205b6101378201526c7a6f72622e6465762f6e66742f60981b61015782015261162b61161d6116176115fd6115f76115d461016487018c6113cf565b765d2868747470733a2f2f7a6f72622e6465762f6e66742f60481b815260170190565b896113cf565b6d149116101134b6b0b3b2911d101160911b8152600e0190565b866113cf565b61227d60f01b815260020190565b97965050505050505056feddf252ad1be2c89b69c2b068fc378daa952ba7f163c4a11628f55a4df523b3efa26469706673582212202e0637010e26806adaed19fb6cc0956b75c742e6b170aa7d346926f755a62b7c64736f6c63430008090033",
  "devdoc": {
    "author": "Miguel Piedrafita",
    "kind": "dev",
    "methods": {},
    "title": "A fridge for all your Zorbs",
    "version": 1
  },
  "userdoc": {
    "kind": "user",
    "methods": {
      "freeze(uint256)": {
        "notice": "Freeze your `tokenId` Zorb in place"
      },
      "unfreeze(uint256)": {
        "notice": "Unfreeze your `tokenId` Zorb from the last wallet and deposit the original NFT in your wallet."
      }
    },
    "version": 1
  },
  "storageLayout": {
    "storage": [
      {
        "astId": 1960,
        "contract": "contracts/ZorbFridge.sol:ZorbFridge",
        "label": "name",
        "offset": 0,
        "slot": "0",
        "type": "t_string_storage"
      },
      {
        "astId": 1962,
        "contract": "contracts/ZorbFridge.sol:ZorbFridge",
        "label": "symbol",
        "offset": 0,
        "slot": "1",
        "type": "t_string_storage"
      },
      {
        "astId": 1973,
        "contract": "contracts/ZorbFridge.sol:ZorbFridge",
        "label": "balanceOf",
        "offset": 0,
        "slot": "2",
        "type": "t_mapping(t_address,t_uint256)"
      },
      {
        "astId": 1977,
        "contract": "contracts/ZorbFridge.sol:ZorbFridge",
        "label": "ownerOf",
        "offset": 0,
        "slot": "3",
        "type": "t_mapping(t_uint256,t_address)"
      },
      {
        "astId": 1981,
        "contract": "contracts/ZorbFridge.sol:ZorbFridge",
        "label": "getApproved",
        "offset": 0,
        "slot": "4",
        "type": "t_mapping(t_uint256,t_address)"
      },
      {
        "astId": 1987,
        "contract": "contracts/ZorbFridge.sol:ZorbFridge",
        "label": "isApprovedForAll",
        "offset": 0,
        "slot": "5",
        "type": "t_mapping(t_address,t_mapping(t_address,t_bool))"
      }
    ],
    "types": {
      "t_address": {
        "encoding": "inplace",
        "label": "address",
        "numberOfBytes": "20"
      },
      "t_bool": {
        "encoding": "inplace",
        "label": "bool",
        "numberOfBytes": "1"
      },
      "t_mapping(t_address,t_bool)": {
        "encoding": "mapping",
        "key": "t_address",
        "label": "mapping(address => bool)",
        "numberOfBytes": "32",
        "value": "t_bool"
      },
      "t_mapping(t_address,t_mapping(t_address,t_bool))": {
        "encoding": "mapping",
        "key": "t_address",
        "label": "mapping(address => mapping(address => bool))",
        "numberOfBytes": "32",
        "value": "t_mapping(t_address,t_bool)"
      },
      "t_mapping(t_address,t_uint256)": {
        "encoding": "mapping",
        "key": "t_address",
        "label": "mapping(address => uint256)",
        "numberOfBytes": "32",
        "value": "t_uint256"
      },
      "t_mapping(t_uint256,t_address)": {
        "encoding": "mapping",
        "key": "t_uint256",
        "label": "mapping(uint256 => address)",
        "numberOfBytes": "32",
        "value": "t_address"
      },
      "t_string_storage": {
        "encoding": "bytes",
        "label": "string",
        "numberOfBytes": "32"
      },
      "t_uint256": {
        "encoding": "inplace",
        "label": "uint256",
        "numberOfBytes": "32"
      }
    }
  }
}